:020000040000FA
:10000000F81A0010B1010000B9010000BB010000A6
:10001000BD010000BF010000C101000000000000A0
:10002000000000000000000000000000C30100000C
:10003000C501000000000000C7010000C901000068
:10004000CB01000091160000CB010000CB010000A5
:10005000CB010000CB010000CB010000CB01000070
:10006000CB010000CB010000CB010000CB01000060
:10007000CB010000CB010000CB010000CB01000050
:10008000CB010000CB01000011170000CB010000E4
:10009000CB010000CB010000CB010000CB01000030
:1000A000CB010000CB010000CB010000CB01000020
:1000B000CB010000CB010000CB010000CB01000010
:1000C000CB010000CB010000CB01000000F002F8E2
:1000D00000F05EF80AA090E8000C82448344AAF184
:1000E0000107DA4501D100F053F8AFF2090EBAE882
:1000F0000F0013F0010F18BFFB1A43F0010318475C
:10010000EC3E00000C3F000010F8013B0A4413F0E5
:10011000030408BF10F8014B1D1108BF10F8015B64
:10012000641E05D010F8016B641E01F8016BF9D153
:10013000002D15D010F8014B03F00C030C2BA1EB94
:1001400004040ABF10F8013BA4EB8314A4EB0324BE
:1001500005F1010314F8016B5B1E01F8016BF9D581
:10016000914238BF10F8013BD1D3704700230024DF
:1001700000250026103A28BF78C1FBD8520728BFB7
:1001800030C148BF0B6070471FB51FBD10B510BD13
:1001900003F0F8FE1146FFF7F7FF01F060FA03F0F5
:1001A00016FF03B4FFF7F2FF03BC03F019FF0000D2
:1001B0000948804709480047FEE7FEE7FEE7FEE7FB
:1001C000FEE7FEE7FEE7FEE7FEE7FEE70448054937
:1001D000034A054B7047000099040000CD00000061
:1001E000F8180010F81A0010F818001000202E4916
:1001F00008602E49C1F848012B490C31086070474E
:100200007047012909D1284A0C3212680123834022
:100210001A43264BC3F84C2109E041B9224A0C325B
:100220001268012383409A43204BC3F84C21704746
:10023000012909D11C4A08321268012383401A435C
:100240001A4BC3F8482109E041B9174A083212682D
:10025000012383409A43154BC3F84821704710B5DA
:10026000044600201049086061782078FFF7E0FF1D
:10027000A1782078FFF7C5FF10BD012181400A4A0F
:100280001160704718B5044664B900208DF800006D
:1002900001208DF8010000208DF802006846FFF76C
:1002A000DEFF00BF00BF18BD40C10F4000C00F40BF
:1002B00000BFFEE710B501220A49002001F08AFDC7
:1002C00001225105104601F085FD01224FF46051D5
:1002D000022001F07FFD01224FF0C061032001F0F8
:1002E00079FD10BD300CB8017047704770470000B1
:1002F000004870479418001070470000FFFFFFFF90
:100300002DE9F047B3480068C0F3016003287DD1B0
:10031000B0488430006800F0030030B1012830D0CC
:10032000022859D003282BD100E000BFA94800685B
:10033000C0F30740441C0221A6488838D0F8880042
:10034000C0F30E00401CA1FB0001A34B4FF0000CBA
:10035000A0FB037901FB039100FB0C1122466346CD
:10036000384603F071FD05469A487C300068C0B2FB
:10037000441C22460023284603F066FD9749086086
:1003800056E094480068C0F30740441C022191489D
:100390008838D0F88800C0F30E00401CA1FB001084
:1003A0008F4A4FF0000CA1FB027900FB029001FB89
:1003B0000C0122466346384603F046FD0546854853
:1003C0007C300068C0B2441C22460023284603F05B
:1003D0003BFD824908602BE07E480068C0F307407F
:1003E000441C02217B488838D0F88800C0F30E00F6
:1003F000401CA1FB00124FF400400023A1FB007938
:1004000002FB009001FB0301224600E011E03846A8
:1004100003F01AFD05466F487C300068C0B2441CEA
:1004200022460023284603F00FFD6C49086000BFF8
:1004300030E068488430006800F0030030B10128E3
:1004400010D0022819D0032823D100E000BF614852
:100450007C300068C0B2401C5F49B1FBF0F05F49DE
:10046000086016E05B487C300068C0B2401C5C4904
:10047000B1FBF0F0594908600BE056487C30006849
:10048000C0B2401C4FF40041B1FBF0F0534908608A
:1004900000BF00BFBDE8F0872020524908604D48EA
:1004A0008838D0F8A00100F0200030B100BF4D48DE
:1004B000006800F040000028F9D0032045497C3155
:1004C0000860002043498839C1F8A80145490C312A
:1004D000086001203F49843108600B203D49091F15
:1004E0000860AA203B49091D0860552008600120CA
:1004F000384908390860AA203649091D0860552086
:1005000034498839C1F88C0000BF3248006800F0D7
:1005100080600028F9D003202E4908390860AA20FD
:100520002C498839C1F88C0055202A49091D0860DA
:1005300000BF2848006800F04070B0F1407FF8D15B
:10054000232024491C310860AA2022498839C1F897
:10055000AC0055201F492431086001201D49183185
:100560000860AA201B4924310860552019498839A0
:10057000C1F8AC0000BF17482030006800F480606C
:100580000028F8D00320134918310860AA20114927
:100590008839C1F8AC0055200E492431086000BFED
:1005A0000C482030006800F44070B0F5407FF7D16F
:1005B0000D4808493C310860002006498839C1F8D7
:1005C000C8010846006820F4704040F4804008608C
:1005D0007047000088C00F4000093D000000001077
:1005E000001BB700A0C10F40DE872804800400BFB5
:1005F000011EA0F10100FBD1704710B50446F94877
:10060000406920F04000F7494861204600F082FA36
:10061000F448406940F04000F249486110BD10B50F
:100620000446F048406920F04000EE49486144F437
:10063000807000F06FFAEB48406940F04000E949F3
:10064000486110BD10B50446E648406920F04000FE
:10065000E4494861491541EA242000F05BFAE1B21F
:1006600041F4807000F056FADE48406940F04000E6
:10067000DC49486110BD10B5DB48406A20F040708D
:10068000D9494862D7488030006840F08050D54949
:10069000C1F88000D448406A20F04060D2494862E6
:1006A000D048D0F8800040F00050CE49C1F880001A
:1006B0000846D0F8940040F00050C1F89400CB48B0
:1006C000D0F8C40040F48060C849C1F8C4000846AE
:1006D000D0F8A80140F40010C1F8A801C148006892
:1006E00040F04000BF49086040208861BE48006873
:1006F00020F47C20BC4908600846006840F42820AB
:1007000008600820BA490860062008610220486095
:100710000520FFF76BFFCF20FFF76FFF0020FFF7EB
:100720007EFF8320FFF77BFF3020FFF778FFED206F
:10073000FFF763FF6420FFF772FF0320FFF76FFFEF
:100740001220FFF76CFF8120FFF769FFE820FFF719
:1007500054FF8520FFF763FF0120FFF760FF79203A
:10076000FFF75DFFCB20FFF748FF3920FFF757FF6A
:100770002C20FFF754FF0020FFF751FF3420FFF734
:100780004EFF0220FFF74BFFF720FFF736FF202038
:10079000FFF745FFEA20FFF730FF0020FFF73FFF9C
:1007A0000020FFF73CFFC020FFF727FF1D20FFF7C9
:1007B00036FFC120FFF721FF1120FFF730FFC520D2
:1007C000FFF71BFF3320FFF72AFF3420FFF727FF37
:1007D000C720FFF712FFBE20FFF721FFF620FFF72B
:1007E0000CFF0120FFF71BFF1020FFF718FF002070
:1007F000FFF715FF3A20FFF700FF5520FFF70FFF27
:100800003620FFF7FAFEB020FFF709FFB120FFF70F
:10081000F4FE0020FFF703FF1B20FFF700FFB620C8
:10082000FFF7EBFE0A20FFF7FAFEA220FFF7F7FE24
:10083000F220FFF7E2FE0020FFF7F1FE2620FFF78F
:10084000DCFE0120FFF7EBFEE020FFF7D6FE0F20D5
:10085000FFF7E5FE2320FFF7E2FE1F20FFF7DFFE94
:100860000920FFF7DCFE0F20FFF7D9FE0820FFF775
:10087000D6FE4B20FFF7D3FEF220FFF7D0FE382044
:10088000FFF7CDFE0920FFF7CAFE1320FFF7C7FED2
:100890000320FFF7C4FE1220FFF7C1FE0720FFF779
:1008A000BEFE0420FFF7BBFEE120FFF7A6FE0020FE
:1008B000FFF7B5FE1D20FFF7B2FE2020FFF7AFFEC9
:1008C0000220FFF7ACFE1120FFF7A9FE0720FFF77B
:1008D000A6FE3420FFF7A3FE8120FFF7A0FE4620EE
:1008E000FFF79DFE0620FFF79AFE0E20FFF797FE0A
:1008F0000C20FFF794FE3220FFF791FE3820FFF71F
:100900008EFE0F20FFF78BFE1120FFF776FE0C20E6
:10091000FFF76CFE2920FFF770FE3248D0F89400F4
:1009200040F080502F49C1F8940010BD70B50446C6
:100930000D462A20FFF761FEC4F30720FFF76FFE84
:10094000E0B2FFF76CFE6119491EC1F30720FFF703
:1009500066FE6119491EC8B2FFF761FE70BD70B531
:1009600004460D462B20FFF748FEC4F30720FFF78F
:1009700056FEE0B2FFF753FE6119491EC1F307208E
:10098000FFF74DFE6119491EC8B2FFF748FE70BD62
:1009900070B505460C4601212846FFF7C7FF012127
:1009A0002046FFF7DCFF2C20FFF727FE11480088C8
:1009B000FFF748FE70BD0F49088070470E49088058
:1009C000704770B505464FF4A0710020FFF7AEFFE9
:1009D000F0210020FFF7C3FF2C20FFF70EFE0024BC
:1009E00010E0000000C0092000C0024000C00F401D
:1009F0000000034004150010061500102846FFF7FC
:100A000021FE641CB4F5963FF8D370BD2DE9F0418A
:100A100080460E4617460024002510214046FFF769
:100A200085FF18213046FFF79AFF2C20FFF7E5FDE0
:100A300000BF14E000250FE037F814000121A940A1
:100A4000084020B93B480088FFF7FCFD03E03A4826
:100A50000088FFF7F7FD6D1C102DEDDB641C182CD2
:100A6000E8D3BDE8F08170B505460E461446A4F102
:100A70002000C4B204EB4400304901EB00123146BF
:100A80002846FFF7C3FF70BD2DE9F04105460C462F
:100A90000026002707E0227829463846FFF7E3FFC3
:100AA0001037641C761C207808B1012000E000207B
:100AB000142E01D2012100E0002108400028EAD1D3
:100AC000BDE8F08110B504461DA12046FFF7DCFF0C
:100AD00010BD2DE9F05F81460E4614461D46DDF837
:100AE00028A004FB05FBD04621464846FFF71EFF21
:100AF00029463046FFF733FF2C20FFF77EFD002705
:100B000004E038F8020BFFF79DFD7F1C5F45F8D32A
:100B1000BDE8F09F0146C1F308000F4A906000BF96
:100B20000D48C06800F010000028F9D10A4880681C
:100B3000C0B2704706150010041500100400001024
:100B400020202020202020202020202020202020A5
:100B5000202020200000000000000340F748006C27
:100B600040F04000F54908640846006C40F0200061
:100B700008640846006C40F0100008640846006CE9
:100B800040F0080008640846006C40F00400086467
:100B90000846006A40F0004008620846006A40F0DB
:100BA000005008620846006A40F0805008627047B2
:100BB000E2480068E2490843E04908600846006AE4
:100BC00040F4001008620846006C40F400600864BD
:100BD0007047DA48006840F02000D84908600846AD
:100BE000006840F4806008600846006C40F4805063
:100BF00008640846006C40F4005008647047CF4811
:100C0000406940F01000CD4948610846006820F472
:100C1000000008600846006820F080700860084600
:100C2000006E20F0007008660846006E20F08060BC
:100C300008667047C148406920F40020BF494861F8
:100C40000846406940F4801048610846406940F415
:100C5000001048617047B948406940F40020B74926
:100C600048610846406920F48010486108464069A0
:100C700040F4001048617047B048406940F40020DB
:100C8000AE4948610846406940F480104861084612
:100C9000406920F400104861704700B5FFF799FFE4
:100CA000A648406920F02000A449486108464069F0
:100CB00040F4806048610846406D40F480504865CB
:100CC0000846406D40F4005048650846406D40F4C9
:100CD000006048650846406D20F40060486500BD2E
:100CE00000B5FFF776FF9548406940F02000934932
:100CF00048610846406920F4806048610846406DBC
:100D000040F4805048650846406D40F40050486506
:100D10000846406D40F4006048650846406D20F488
:100D20000060486500BD00B5FFF753FF8348406988
:100D300040F02000814948610846406940F48060E5
:100D400048610846406D20F4805048650846406D73
:100D500040F4005048650846406D40F40060486526
:100D60000846406D20F40060486500BD00B5FFF7FF
:100D700030FF7248406940F02000704948610846E1
:100D8000406940F4806048610846406D40F48050FE
:100D900048650846406D20F4005048650846406D9F
:100DA00040F4006048650846406D20F400604865E6
:100DB00000BD014600226148406B20F400105F4BEB
:100DC0005863012906D118464069C0F3C05000B1EC
:100DD00000E00122022907D158484069C0F30060B1
:100DE00008B1002200E00122032907D15348406FD7
:100DF000C0F3406008B1002200E00122042907D1BD
:100E00004E48406FC0F3806008B1002200E001222C
:100E10004A48406B40F40010484B5863D0B27047CA
:100E200070B505461026412D02D1FFF703FF06E0FD
:100E3000422D02D1FFF70FFF01E0FFF71DFFFFF783
:100E40002CFF0120FFF7B5FF0446012C00D103263B
:100E50000220FFF7AEFF0446012C00D1022603203A
:100E6000FFF7A7FF0446012C00D101260420FFF75D
:100E7000A0FF0446012C00D10026FFF731FF01201E
:100E8000FFF797FF0446012C00D107260220FFF749
:100E900090FF0446012C00D106260320FFF789FFAE
:100EA0000446012C00D105260420FFF782FF0446EA
:100EB000012C00D10426FFF736FF0120FFF779FF50
:100EC0000446012C00D10B260220FFF772FF0446D6
:100ED000012C00D10A260320FFF76BFF0446012CEA
:100EE00000D109260420FFF764FF0446012C00D13D
:100EF0000826FFF73BFF0120FFF75BFF0446012CAC
:100F000000D10F260220FFF754FF0446012C00D128
:100F10000E260320FFF74DFF0446012C00D10D26BD
:100F20000420FFF746FF0446012C00D10C26304672
:100F300070BD4FF0FF3101617047000000C0092013
:100F40001000380000210161704700B5FE48FFF72E
:100F5000F0FFFD482030FFF7ECFFFB484030FFF783
:100F6000E8FFF9486030FFF7E4FFF7488030FFF70B
:100F7000E0FF00BD00B5F448FFF7E4FFF248203081
:100F8000FFF7E0FFF0484030FFF7DCFFEE4860304D
:100F9000FFF7D8FFEC488030FFF7D4FF00BD0268B0
:100FA0000A6002690A6142694A61C269CA6182696A
:100FB0008A61704700B50346FFF7C7FFE24918464C
:100FC000FFF7EDFFE049203103F12000FFF7E7FFD5
:100FD000DD49403103F14000FFF7E1FFDA496031BC
:100FE00003F16000FFF7DBFFD749803103F1800098
:100FF000FFF7D5FF00BD00B503461946D248FFF7FD
:10100000CEFF03F12001D0482030FFF7C8FF03F1E5
:101010004001CD484030FFF7C2FF03F16001CA48EC
:101020006030FFF7BCFF03F18001C7488030FFF755
:10103000B6FF00BD10B5C548006800B910BD00205E
:10104000C24908604FF47840FFF7B8FC4FF6FF70D4
:10105000FFF7B1FCBEA10020FFF716FDC2A11820CA
:10106000FFF712FDC6A13020FFF70EFDCA48007839
:101070003030CA490870CA4800783030C949087011
:10108000C94800783030C9490870C9480078303004
:10109000C84908700846027850211420FFF7E3FC85
:1010A000C248027850212820FFF7DDFCBD480278B5
:1010B00050213C20FFF7D7FCB84802785021084661
:1010C000FFF7D1FCBC4802785021A020FFF7CBFCF1
:1010D000BA4802785021C820FFF7C5FC00BFADE731
:1010E00010B5AD480178082002F0C4FC41F2883008
:1010F00002F0CEFCAA480178072002F0BBFC41F2C6
:10110000883002F0C5FCA8480178062002F0B2FC45
:1011100041F2883002F0BCFCA5480178052002F0BD
:10112000A9FC41F2883002F0B3FCA5480178042004
:1011300002F0A0FC41F2883002F0AAFCA14801783C
:10114000032002F097FC41F2883002F0A1FC9E4897
:101150000178022002F08EFC41F2883002F098FC07
:101160009A480178012002F085FC41F2883002F0B3
:101170008FFC02F03FFB02F027FB02F0FBFA02F0CB
:101180002DFB02F0DFFA10BD10B54320FFF748FE3B
:101190000446102C03D15820874908700CE00A2C13
:1011A00004DB04F137008449087005E00A2C03DAF7
:1011B00004F130008049087010BD10B5FFF75BFAEC
:1011C0004FF6FF70FFF7FDFB012060490860FFF755
:1011D00031FF10BD00B5FFF712FDFFF74DFDFFF722
:1011E000D3FF7B48FFF707FF00BD10B5FEF7FEFFFA
:1011F00001220A21022001F023F80020FFF742F823
:10120000122000F09DFA10BD10B502F09BFAFFF716
:1012100022FDFFF765FF6F48FFF7EDFE10BD10B52B
:1012200001206D4908706420486000206B490870F7
:1012300001204870C87000208870087142F2107058
:101240008860654A00214FF0402001F015F963499C
:101250004FF0402001F00EFA012000F071FA012158
:101260004FF0402001F0C8F910BD2DE9F0410446CF
:101270000D4616461F4624B12021002000F0BEFD79
:1012800003E02021002000F0C3FD2EB14FF4000147
:10129000002000F0B3FD04E04FF40001002000F056
:1012A000B7FD2DB14FF48061002000F0A7FD04E0F0
:1012B0004FF48061002000F0ABFD2FB14FF0807142
:1012C000002000F09BFD04E04FF08071002000F052
:1012D0009FFDBDE8F08170B50446002500BF8BE09E
:1012E00000231A4601210846FFF7BFFF3C4800686B
:1012F00080089621B0FBF1F6304602F0C9FB0023CE
:10130000012211461846FFF7B0FF354800688008F3
:101310009621B0FBF1F6304602F0BAFB01231A46E3
:1013200000210846FFF7A1FF2D480068800896219C
:10133000B0FBF1F6304602F0ABFB01230022114670
:101340001846FFF792FF4DE000C00920201500105D
:10135000202020436F727465784D335F4E585020C3
:10136000202020200000000020202020525458205F
:10137000426C696E6B792020202020200000000044
:101380002020207777772E6875696E732E636F6DD6
:1013900020202020000000000B1500101015001068
:1013A0000A15001011150010091500101215001073
:1013B0000815001013150010251500102715001032
:1013C0000F1500100E1500100D1500100C15001053
:1013D0000816001068150010181500105C15001094
:1013E00000000010DC48006880089621B0FBF1F690
:1013F000304602F04DFB6D1C04EB4400B5EB400F92
:10140000FFF46EAF70BD70B50446002500BF3CE030
:1014100000231A4601210846FFF727FFCE4800683F
:1014200080089621B0FBF1F6304602F031FB012333
:10143000002211461846FFF718FFC74800688008C9
:101440009621B0FBF1F6304602F022FB01231A464A
:1014500000210846FFF709FFBF4800688008962171
:10146000B0FBF1F6304602F013FB002301221146D7
:101470001846FFF7FAFEB848006880089621B0FBCE
:10148000F1F6304602F004FB6D1C04EB4400B5EBB2
:10149000400FBDD370BD70B50446002500BF70E09D
:1014A0002021002000F0AAFC4FF48061002000F011
:1014B000AFFC4FF40001002000F0A0FC4FF0807161
:1014C000002000F0A5FCA44800688008C821B0FBFB
:1014D000F1F6304602F0DCFA2021002000F098FC02
:1014E0004FF48061002000F089FC4FF400010020DF
:1014F00000F084FC4FF08071002000F089FC9648D9
:1015000000688008C821B0FBF1F6304602F0C0FA4E
:101510002021002000F07CFC4FF48061002000F0CE
:101520006DFC4FF40001002000F072FC4FF0807160
:10153000002000F063FC884800688008C821B0FBE8
:10154000F1F6304602F0A4FA2021002000F056FC0B
:101550004FF48061002000F05BFC4FF4000100209C
:1015600000F056FC4FF08071002000F047FC7A48F4
:1015700000688008C821B0FBF1F6304602F088FA16
:101580006D1C04EB4400B5EB400F89D370BD10B562
:1015900072480078312803D10120FFF77CFF18E062
:1015A0006E480078322803D10220FFF72CFF10E0AC
:1015B0006B48007830B90320FFF725FF0120684908
:1015C000087006E065480078332802D10120FFF753
:1015D00082FE10BD10B56348FFF70DFDFFF714FE46
:1015E000FFF71DFEFFF7E9FDFFF7F4FDFFF7FDFD37
:1015F000FFF720FBFEF75EFEFFF7C9FF5A48FFF733
:10160000FAFC10BD10B502F076F858A1614800F060
:10161000F7F810BD10B55F4801F0DAFB5E490870BD
:1016200008460078D0B1084600785C495C4A1278D8
:1016300088545949574800F0E3F855A1554800F03F
:10164000DFF8564800785749087000204449087070
:10165000534908700A21514802F06DFC10BDFFF794
:10166000B9FFFFF7CFFF12E04F48FFF7A3FCFFF7EA
:1016700037FD4E48FFF79EFCFFF786FDFFF7DAFCCB
:101680003948FFF797FCFFF782FFFFF7C3FFEBE74F
:1016900010B500214FF0402000F092FE4448007841
:1016A000401C43490870084600780A2807D1414881
:1016B0000078401C3F49087000203D4908703D48B3
:1016C0000078062807D13C480078401C3A49087049
:1016D000002038490870384800780A2807D1374870
:1016E0000078401C354908700020334908703348A1
:1016F0000078062808D10020304908702E4908706B
:101700002C4908702A49087001202D49086010BD35
:1017100010B50020FEF7B1FD28480078294908706F
:101720002548007828490870214800782749087022
:10173000204800782649087000200949087010BD2B
:1017400000F01F02012191404209920002F1E022C3
:10175000C2F80011704700000000001025150010AD
:101760002615001048170010A81600100D0A204575
:101770006E7465722074686520436F6E74656E7454
:101780002C20317E38204C454420546F67676C65AF
:101790000D0A000000C00040281500108818001035
:1017A00029150010271500106815001008160010E4
:1017B0000B1500100A15001009150010081500106F
:1017C000201500100C1500100D1500100F1500103D
:1017D0000E15001013B5044601231A4601A9204630
:1017E00001F012FB1CBD38B5044600200090012317
:1017F0001A466946204601F053FB9DF8000038BDAB
:1018000070B506460D462C4604E014F8011B304620
:10181000FFF7E0FF20780028F7D170BD70B50446CF
:101820000D4629462046FFF7EBFFE1A12046FFF7D2
:10183000E7FF70BD2DE9F04105460C460A2094FBF8
:10184000F0F100FB1140C6B20A2094FBF0F00A212F
:1018500090FBF1F201FB1200C7B2642094FBF0F0A0
:1018600090FBF1F201FB120000F0FF0808F13000DC
:10187000C1B22846FFF7AEFF07F13000C1B22846DB
:10188000FFF7A8FF06F13000C1B22846FFF7A2FF1C
:10189000BDE8F0812DE9F04705460C460A2094FB8F
:1018A000F0F100FB1140C6B20A2094FBF0F00A21CF
:1018B00090FBF1F201FB1200C7B2642094FBF0F040
:1018C00090FBF1F201FB120000F0FF084FF47A7078
:1018D00094FBF0F090FBF1F201FB120000F0FF0925
:1018E00042F2107094FBF0F090FBF1F201FB120059
:1018F00000F0FF0A0AF13000C1B22846FFF76AFF84
:1019000009F13000C1B22846FFF764FF08F130004A
:10191000C1B22846FFF75EFF07F13000C1B228468A
:10192000FFF758FF06F13000C1B22846FFF752FF1B
:10193000BDE8F0872DE9F34F83B00C460A20B4FBD5
:10194000F0F100FB1145B4FBF0F00A21B0FBF1F21D
:1019500001FB12066420B4FBF0F0B0FBF1F201FBD6
:1019600012074FF47A70B4FBF0F0B0FBF1F201FB18
:10197000120842F21070B4FBF0F0B0FBF1F201FB80
:1019800012098C48B4FBF0F0B0FBF1F201FB120A33
:101990008948B4FBF0F0B0FBF1F201FB120B874871
:1019A000B4FBF0F0B0FBF1F201FB120002908448AE
:1019B000B4FBF0F0B0FBF1F201FB120001908148A2
:1019C000B4FBF0F0B0FBF1F201FB120000900098C4
:1019D0003030C1B20398FFF7FDFE01983030C1B23C
:1019E0000398FFF7F7FE02983030C1B20398FFF773
:1019F000F1FE0BF13000C1B20398FFF7EBFE0AF1E4
:101A00003000C1B20398FFF7E5FE09F13000C1B222
:101A10000398FFF7DFFE08F13000C1B20398FFF72B
:101A2000D9FE07F13000C1B20398FFF7D3FE06F1EB
:101A30003000C1B20398FFF7CDFE05F13000C1B20E
:101A40000398FFF7C7FE05B0BDE8F08F2DE9F04120
:101A500007460D465CA13846FFF7D2FE012600BFBF
:101A6000B00045FA00F000F00F04092C02DD04F18B
:101A7000370001E004F13000C1B23846FFF7AAFE9A
:101A8000301EA6F10101CEB2EAD1BDE8F0812DE908
:101A9000F04107460D464CA13846FFF7B1FE03263C
:101AA00000BFB00045FA00F000F00F04092C02DD81
:101AB00004F1370001E004F13000C1B23846FFF70D
:101AC00089FE301EA6F10101CEB2EAD1BDE8F08157
:101AD0002DE9F04107460D463BA13846FFF790FE41
:101AE000072600BFB00025FA00F000F00F04092C13
:101AF00002DD04F1370001E004F13000C1B23846E4
:101B0000FFF768FE301EA6F10101CEB2EAD1BDE8B2
:101B1000F0811FB501208DF8020000208DF804002F
:101B20008DF8030002208DF8010000208DF80000E0
:101B3000684600F073FB03208DF80100684600F052
:101B40006DFB02A801F01EF94FF4E130029002A9EA
:101B50001E4800F099FF01211C4801F08AF8AFF2FD
:101B60005F301B490860AFF24B301A490860AFF292
:101B70009B3019490860AFF22B1018490860AFF28A
:101B8000F10017490860AFF2B70016490860AFF2DC
:101B90005B3015490860AFF2033014490860AFF2BA
:101BA0006B2013490860AFF2C130124908601FBDB5
:101BB0000A0D0000A086010040420F0080969800A8
:101BC00000E1F50500CA9A3B3078000000C00040F3
:101BD0002C1500103015001034150010441500109D
:101BE000481500104C150010381500103C15001059
:101BF000401500105015001010B50A46202801D2DB
:101C0000034601E0A0F120031946202810D2454BDD
:101C10001B6803248C40A343434CC4F8A831414BB8
:101C20001B6802FA01F423433F4CC4F8A83111E0C9
:101C30003C4B1B1D1B6803248C40A3433A4CC4F847
:101C4000AC31384B1B1D1B6802FA01F42343364CA0
:101C5000C4F8AC3110BD0146202903D20A46314BED
:101C6000186804E0A1F120022E4B1B1D186820FA11
:101C700002F303F00300704770B506462B48046872
:101C80003046FFF7E8FF054635B1012D06D0022D9D
:101C900006D0032D08D105E0042505E0012503E069
:101CA000022501E0082500BF00BFB4FBF5F4204683
:101CB00070BD012909D11C4AC43212681C4B034073
:101CC0001A43194BC3F8C42009E041B9164AC4327B
:101CD0001268174B83431A40134BC3F8C420704754
:101CE00000201149C031086030BF704704201149FD
:101CF000086000200C49C031086030BF70470420E4
:101D00000C49086001200849C031086030BF7047A5
:101D100004200849086003200349C031086030BF2F
:101D200070470000A8C10F4000C00F400000001025
:101D3000DEF7EFEF10ED00E001460020052912D29A
:101D4000DFE801F00305080B0E00FB480CE0FA4841
:101D5000203009E0F848403006E0F748603003E002
:101D6000F548803000E000BF00BF7047014600200A
:101D7000052912D2DFE801F00305080B0E00EE483A
:101D80000CE0ED48203009E0EB48403006E0EA483E
:101D9000603003E0E848803000E000BF00BF7047DB
:101DA00001460020052912D2DFE801F00305080BE7
:101DB0000E00E1480CE0E048203009E0DE48403009
:101DC00006E0DD48603003E0DB48803000E000BF23
:101DD00000BF70472DE9F04107460D4616463846CC
:101DE000FFF7AAFF04463CB11EB1206828432060DB
:101DF00002E02068A8432060BDE8F08170B5064687
:101E00000C463046FFF798FF054605B1AC6170BD42
:101E100070B506460C463046FFF78EFF054605B105
:101E2000EC6170BD70B505462846FFF785FF044696
:101E30000CB1606970BD0020FCE718B912B9BF4B46
:101E4000196017E0022804D11AB9BC4B203319607D
:101E500010E028B9012A03D1B84B1B1D196009E015
:101E6000022805D1012A03D1B44B2433196001E0C3
:101E700000BFFEE7704703463BB932B9AF480C38A4
:101E80000068C84000F001007047022B07D132B94A
:101E9000AA4814300068C84000F00100F4E743B9D4
:101EA000012A06D1A54808380068C84000F00100A2
:101EB000EAE7022B08D1012A06D1A04818300068B1
:101EC000C84000F00100DFE700BFFEE718B99B4AF9
:101ED000121F116007E0022803D1984A1C321160DA
:101EE00001E000BFFEE7704770B504460D46164698
:101EF000324629462046FFF76DFF70BD70B5044697
:101F00000D4629462046FFF779FF70BD70B504469F
:101F10000D4629462046FFF77BFF70BD10B50446ED
:101F20002046FFF77FFF10BD70B504460D461646EC
:101F3000324629462046FFF780FF70BD70B5044643
:101F40000D461646324629462046FFF794FF70BDDF
:101F500010B503460C4621461846FFF7B7FF10BDE3
:101F60002DE9F04107460D4616463846FFF7E4FED8
:101F700004463CB11EB120692843206102E020697B
:101F8000A8432061BDE8F0812DE9F04180460E466E
:101F900015461F464046FFF7E9FE04468CB147B19F
:101FA0001EB16088284360800BE020882843208091
:101FB00007E01EB16088A843608002E02088A84343
:101FC0002080BDE8F0812DE9F04180460E4615469F
:101FD0001F464046FFF7CAFE04468CB147B11EB10A
:101FE000608A284360820BE0208A2843208207E031
:101FF0001EB1608AA843608202E0208AA843208242
:10200000BDE8F0812DE9F04107460E4614463846FA
:10201000FFF7ACFE05461DB10EB16C8300E02C83CA
:10202000BDE8F0812DE9F04107460E4614463846DA
:10203000FFF79CFE05461DB10EB1EC8300E0AC83BA
:10204000BDE8F08170B506460D463046FFF78EFEBE
:10205000044624B10DB1E08A70BDA08AFCE70020DF
:10206000FAE72DE9F04180460C4616461F464046E9
:10207000FFF796FE05465DB12FB1032C08DC285D05
:102080003043285504E0032C02DC285DB04328557A
:10209000BDE8F0812DE9F04180460C4616461F460A
:1020A0004046FFF77DFE05469DB14FB1032C10DC85
:1020B00005F11000005D304305F11001085508E0FE
:1020C000032C06DC05F11000005DB04305F11001A2
:1020D0000855BDE8F0812DE9F04107460C4615464C
:1020E0003846FFF75DFE064626B1032C02DC06F1FA
:1020F00018000555BDE8F0812DE9F04107460C4672
:1021000015463846FFF74CFE064626B1032C02DC86
:1021100006F11C000555BDE8F08170B506460C4679
:102120003046FFF73DFE054655B1032C08DC05F1AE
:102130001400005D70BD000000C0092090800240C6
:102140000020F7E7F0B504460B4615461946600037
:10215000434A102901D31039401C52F820604FEA3D
:10216000410C032707FA0CF7BE4342F8206052F8EF
:1021700020604F0005FA07F73E4342F82060F0BDAB
:10218000F0B504460B46154619466000344A403205
:10219000102901D31039401C52F820604FEA410C3D
:1021A000032707FA0CF7BE4342F8206052F820607C
:1021B0004F0005FA07F73E4342F82060F0BD30B506
:1021C0000B4627496831012A07D151F820400125E3
:1021D0009D402C4341F8204006E051F82040012565
:1021E0009D40AC4341F8204030BD012806D11C4938
:1021F000896A41F008011A4A916206E028B9184933
:10220000896A21F00801164A91627047012800D1BD
:10221000052201B90A22124BDA67704710B504464D
:10222000A27861782078FFF78DFFE27861782078D6
:10223000FFF7A6FF227961782078FFF7C0FF10BD75
:102240007CB506460C4615468DF80060E0B28DF868
:1022500001008DF802506846FFF7E0FF7CBD0000EA
:1022600000C0024070B5054635B1012D09D0022DE0
:102270000CD0032D14D10EE00220FFF7FDFC044624
:102280000EE00420FFF7F8FC044609E02C20FFF7DD
:10229000F3FC044604E02E20FFF7EEFC044600BFEA
:1022A00000BF204670BD2DE9F04781460C464846E8
:1022B000FFF7D8FF0026054600232946A1FB047C32
:1022C00006FB04C205FB0321FB4A384601F0BCFDB6
:1022D00005462846BDE8F08701464FF0FF30B1F1D2
:1022E000402F01D100200DE0F44A914201D101209C
:1022F00008E0F34A914201D1022003E0F14A914201
:1023000000D10320704770B505460C46B5F1402F4B
:1023100008D0EA48854205D0E948854202D0E9481C
:10232000854200D103E0AC21E7A0FDF7C1FF4CB12D
:10233000012C07D0022C05D0032C03D0042C01D093
:10234000052C00D103E0AD21DFA0FDF7B1FF286827
:102350000121A1400840C6B20EB1012070BD00208D
:10236000FCE770B505460C46B5F1402F08D0D348C0
:10237000854205D0D248854202D0D248854200D15C
:1023800003E0CA21D0A0FDF793FF4CB1012C07D088
:10239000022C05D0032C03D0042C01D0052C00D135
:1023A00003E0CB21C8A0FDF783FF2868211D01228F
:1023B0008A401040C6B20EB1012070BD0020FCE77B
:1023C00070B505460C46B5F1402F08D0BB48854294
:1023D00005D0BB48854202D0BA48854200D103E00F
:1023E000E321B9A0FDF764FF4CB1012C07D0022C0A
:1023F00005D0032C03D0042C01D0052C00D103E020
:10240000E421B1A0FDF754FF0120A040286070BD79
:1024100070B505460C46B5F1402F08D0A748854257
:1024200005D0A748854202D0A648854200D103E0E6
:10243000FA21A5A0FDF73CFF4CB1012C07D0022CDE
:1024400005D0032C03D0042C01D0052C00D103E0CF
:10245000FB219DA0FDF72CFF201D0121814029605B
:1024600070BD20B90A4601231370536003E00A4689
:102470000023537000BF70472DE9F04704460D4616
:102480001646B4F1402F08D08C48844205D08C48C1
:10249000844202D08B48844200D104E040F23111E2
:1024A00089A0FDF705FF1DB1012D01D000D000D19D
:1024B00004E04FF4997184A0FDF7FAFEB4F1402FC7
:1024C00008D101210220FFF7F4FB00210220FFF7D1
:1024D00093FB22E07948844208D101210420FFF7D0
:1024E000E8FB00210420FFF787FB16E074488442D4
:1024F00008D101218805FFF7DCFB00212C20FFF724
:102500007BFB0AE06F48844207D10121C805FFF731
:10251000D0FB00212E20FFF76FFBA06A20F0030004
:10252000A062A06AA0620020A0602061E0606068F4
:1025300040F002006060606820F00200606085B9D1
:102540003746387818B97868401EE06017E02046B2
:10255000FFF7C2FE81467968FFF7A5FE401EE060E6
:102560000DE0B046A06A20F00C00A062464698F844
:102570000100012803D1A06A40F00400A0624FF0DE
:10258000FF302060BDE8F08710B50446B4F1402F5D
:1025900008D04A48844205D04948844202D049487C
:1025A000844200D104E040F27F1147A0FDF780FE95
:1025B00000206060B4F1402F04D100210220FFF719
:1025C00078FB18E03D48844204D100210420FFF745
:1025D00070FB10E03A48844205D100214FF480009E
:1025E000FFF767FB07E03748844204D100214FF42E
:1025F0008000FFF75EFB10BD70B504460D46B4F1D8
:10260000402F08D02D48844205D02D48844202D066
:102610002C48844200D104E04FF4D0712AA0FDF789
:1026200047FE012D04D1606840F00100606003E0C6
:10263000606820F00100606070BD10B50446B4F120
:10264000402F08D01D48844205D01D48844202D046
:102650001C48844200D104E04FF4DC711AA0FDF75D
:1026600027FE606840F002006060606820F00200B1
:10267000606010BD70B504460D46B4F1402F08D01F
:102680000E48844205D00E48844202D00D48844250
:1026900000D104E040F2D7110BA0FDF709FE287924
:1026A00040B12879012805D02879022802D028795C
:1026B000032811D116E0000040420F0000800040C6
:1026C00000000940004009406C7063313778785F42
:1026D00074696D65722E63004FF4EC71AFF21800EF
:1026E000FDF7E6FD287830B1012807D0022808D090
:1026F00003280CD108E0A868A0610AE0A868E0619E
:1027000007E0A868206204E0A868606201E000BFFA
:10271000FEE700BF6069297801EB41020721914083
:1027200088436061687838B16069297801EB4102BB
:102730000121914008436061E87840B160692978DF
:1027400001EB4101491C01228A4010436061A878D5
:1027500040B16069297801EB4101891C01228A405E
:1027600010436061E06B2978042202EB41020321EF
:1027700091408843E063287900F00300297804221F
:1027800002EB41018840E16B0843E06370BD70B526
:1027900004460E461546B4F1402F08D04348844203
:1027A00005D04348844202D04248844200D105E02B
:1027B00040F20D21AFF2F000FDF77AFD36B1012EA7
:1027C00006D0022E06D0032E08D105E0A56107E051
:1027D000E56105E0256203E0656201E000BFFEE718
:1027E00000BF70BD70B504460D46B4F1402F08D04F
:1027F0002E48844205D02E48844202D02D4884427F
:1028000000D105E040F23321AFF24410FDF750FD56
:10281000A06A297801EB4102072191408843A06218
:10282000687838B1A06A297801EB41020121914012
:102830000843A062A87840B1A06A297801EB410161
:10284000491C01228A401043A062E87840B1A06A86
:10285000297801EB4101891C01228A401043A062C2
:1028600070BD70B504460D46B4F1402F08D00F4836
:10287000844205D00E48844202D00E48844200D1E2
:1028800005E040F24E21AFF2C010FDF711FD0DB191
:10289000012D00D105E040F24F21AFF2D410FDF739
:1028A00007FD0DB9E06A70BD206BFCE700800040B9
:1028B00000000940004009402DE9F04F8BB004466C
:1028C000894600200990F748844204D10620FFF78A
:1028D000D3F9074616E0F448844204D10820FFF7F4
:1028E000CBF907460EE0F148844204D13020FFF7CF
:1028F000C3F9074606E0EE48844203D13220FFF7D1
:10290000BBF907464FF0FF3B0020079006900025DB
:102910002E464FF001084DE00020089040E0089856
:10292000404400FB09FC0020010741EA1711380769
:102930000022A0FB083E01FB08E100FB02106246FA
:10294000CDE900300023DDE9000101F07DFACDE999
:10295000040104980390DDF814A00398B0F1004F2F
:1029600004D90398404203900AF1010ABAF1000F1A
:1029700002D0BAF5803F00D90FE0039858450BD23A
:10298000DDF80CB00026554608980790CDF8188061
:10299000BBF1000F00D106E000BF0898401C089072
:1029A00008984045BBD300BFBBF1000F00D104E045
:1029B00008F10108B8F10F0FAED900BF002185EA78
:1029C00001007140084302D10BB0BDE8F08F380917
:1029D000069900FB01FC0846079908440021A0FB6A
:1029E000052301FB053100FB06100346CDE900205D
:1029F0006046002101F028FA02900298814503D92F
:102A00000298A9EB000B02E00298A0EB090B6420EE
:102A10000BFB00F0B0FBF9FBBBF1030F32D2A24875
:102A2000844216D1207B40F080002073280A40EABF
:102A3000066020712570207B00F07F002073F0215C
:102A4000069801EA0010079901F00F010843A062FF
:102A500016E0207B40F080002073280A40EA0660E0
:102A600020712570207B00F07F002073F0210698F4
:102A700001EA0010079901F00F01084384F82800CB
:102A80000120099009989FE770B504460D468548D6
:102A9000844208D08448844205D08448844202D0CD
:102AA0008348844200D103E0D12182A0FDF700FCDD
:102AB000687940B16879012805D06879022802D088
:102AC0006879032800D103E0D2217AA0FDF7F0FB5A
:102AD000A87910B1A879012800D103E0D32175A00D
:102AE000FDF7E6FB287958B12879012808D0287924
:102AF000022805D02879032802D02879042800D19B
:102B000003E0D4216BA0FDF7D3FB6648844203D1D8
:102B100001210820FFF7CDF86348844203D1012149
:102B20001020FFF7C6F86148844203D1012108064E
:102B3000FFF7BFF85E48844203D101214806FFF742
:102B4000B8F85948844223D107202072002020720F
:102B500000E02678207D00F001000028F9D18020D7
:102B600084F8300000BF207D00F020000028FAD05B
:102B7000002084F83000606020732062207484F8A4
:102B80004C0084F8540084F85000267E267D1AE01C
:102B9000072020720020207200E02678207D00F0BF
:102BA00001000028F9D1802084F8300000BF207D8A
:102BB00000F020000028FAD0002084F83000606087
:102BC00020732062267D3A48844202D1002084F896
:102BD000240020462968FFF76FFE3348844203D162
:102BE000207B00F0C00602E0207B00F0C006687980
:102BF00030B1012806D0022807D0032808D108E008
:102C000000BF09E046F0010606E046F0020603E0D8
:102C100000BF46F0030600BF00BF2879C0B146F0F0
:102C200008062879012806D0022806D0032807D0F4
:102C300004280BD107E000BF09E046F0100606E0CB
:102C400046F0200603E046F0300600E000BF00BF7B
:102C5000A87928B1012802D146F0040601E000BF9E
:102C600000BF00BF1048844201D1267300E02673E4
:102C700070BD70B504460D460A48844208D00A4823
:102C8000844205D00948844202D00948844200D1D8
:102C900004E040F2F23107A0FDF70AFB0DB1012D6F
:102CA00010D115E000C00040000001400080094044
:102CB00000C009406C7063313778785F7561727459
:102CC0002E63000040F2F331AFF21800FDF7F0FA86
:102CD000012D10D1F948844206D194F8300040F01B
:102CE000800084F8300014E094F8300040F0800058
:102CF00084F830000DE0F148844205D194F83000AA
:102D0000002084F8300004E094F83000002084F8BB
:102D1000300070BD10B50446E948844208D0E74849
:102D2000844205D0E748844202D0E748844200D17B
:102D300005E040F29D11AFF28400FDF7B9FA0021E1
:102D40002046FFF796FFDE48844203D10021082089
:102D5000FEF7AFFFD948844203D100211020FEF7CF
:102D6000A8FFD848844204D100214FF08070FEF7BC
:102D7000A0FFD548844204D100214FF00070FEF737
:102D800098FF10BD4FF4E131016003214171002132
:102D900001718171704770B504460D46C848844280
:102DA00008D0C648844205D0C648844202D0C648EE
:102DB000844200D105E040F2E111AFF20810FDF7C6
:102DC00077FABE48844201D1257000E0257070BDBD
:102DD00010B50446BA48844208D0B848844205D0A9
:102DE000B848844202D0B848844200D105E04FF48C
:102DF000FD71AFF24010FDF75BFAB048844201D19B
:102E0000207810BD2078FCE72DE9FF5F80468A46D8
:102E1000934657465C460398012825D1002520E0BB
:102E20004FF0FF3905E0B9F1000F00D107E0A9F13B
:102E3000010998F8140000F020000028F3D000BF2A
:102E4000B9F1000F00D10EE0102607E017F8011BC2
:102E50004046FFF7A0FF761E641E6D1C0EB1002CCD
:102E6000F4D1002CDCD117E0002512E098F8140012
:102E700000F0200000B90EE0102607E017F8011B53
:102E80004046FFF788FF641E761E6D1C0EB1002CB5
:102E9000F4D1002CEAD100BF284604B0BDE8F09F71
:102EA0002DE9F05F0746894692469B464E465546B9
:102EB000BBF1010F1ED1002419E04FF0FF3805E0EF
:102EC000B8F1000F00D106E0A8F10108387D00F04C
:102ED00001000028F4D000BFB8F1000F00D108E0D5
:102EE0003846FFF775FF06F8010B6D1E641C002DB8
:102EF000E3D110E000240BE0387D00F0010000B9C0
:102F000008E03846FFF764FF06F8010B641C6D1EED
:102F1000002DF1D100BF2046BDE8F09F10B504465A
:102F20006748844208D06548844205D06548844299
:102F300002D06548844200D105E04FF42371AFF21E
:102F40008C20FDF7B5F95D48844204D1207B40F028
:102F50004000207303E0207B40F04000207310BD50
:102F60002DE9F04104460D4617465548844208D0E5
:102F70005248844205D05348844202D05248844289
:102F800000D105E040F2B321AFF2D820FDF790F96F
:102F90000FB1012F00D105E04FF42D71AFF2EC20FD
:102FA000FDF786F9072D15D2DFE805F00406080ABB
:102FB0000C0E110001260DE002260BE0042609E0AC
:102FC000082607E0802605E04FF4807602E04FF403
:102FD000007600BF00BF3948844214D15DB1012D95
:102FE00009D0022D07D0052D05D0062D03D0032DC5
:102FF00001D0042D00D116E04FF43471AFF24C3003
:10300000FDF756F90FE03DB1012D05D0022D03D09B
:10301000052D01D0062D00D105E04FF43571AFF23A
:103020006C30FDF745F9012F0AD12448844203D1C1
:1030300060683043606013E06068304360600FE0B8
:103040001E48844206D1606840F28F31B143084087
:10305000606005E0606840F20731B143084060609D
:10306000BDE8F08110B504461548844208D01348E5
:10307000844205D01348844202D01348844200D1D0
:1030800005E040F20231AFF2D430FDF711F90B4800
:10309000844201D1007D10BD207DFCE710B50446BF
:1030A0000748844208D00548844205D00548844238
:1030B00002D00548844209D10EE000000000014022
:1030C00000C000400080094000C0094040F21931B2
:1030D000AFF22040FDF7ECF8A06840F2CF31084095
:1030E00010BD0146087D00F0400008B10020704787
:1030F0000120FCE770B506460C460025F7488642DD
:1031000008D0F748864205D0F648864202D0F648F5
:10311000864200D105E040F23F31AFF26840FDF752
:10312000C7F8E07840B1E078012805D0E0780228BF
:1031300002D0E078032800D105E04FF45071AFF2DF
:103140008C40FDF7B5F8A07810B1A078012800D127
:1031500005E040F24131AFF2A440FDF7A9F8207834
:1031600010B12078012800D105E040F24231AFF2E1
:10317000BC40FDF79DF8607810B16078012800D15F
:1031800005E040F24331AFF2D440FDF791F845F04D
:103190000105E07830B1012806D0022807D00328C5
:1031A00008D108E000BF09E045F0400506E045F021
:1031B000800503E000BF45F0C00500BF00BF607898
:1031C000012801D145F004052078012801D145F0FE
:1031D0000205A078012801D145F00805C0488642C3
:1031E00003D105F0CF00307202E005F0CF0030725D
:1031F00070BD00218170C170012101704170704764
:103200002DE9F04104460F461546B448844208D0E3
:10321000B348844205D0B348844202D0B2488442C5
:1032200000D105E040F29A31AFF27850FDF740F856
:103230000DB1012D00D105E040F29B31AFF28C5071
:10324000FDF736F80026012D09D13878012801D183
:1032500046F002067878012801D146F00406A0481D
:10326000844215D1012D10D1207B40F080002073C5
:10327000002020702071207B20F08000207310201F
:10328000A06246F00100206218E00020206215E0F4
:10329000012D11D1207B40F0800020730020207090
:1032A0002071207B20F080002073102084F82800FB
:1032B00046F00100206201E000202062BDE8F081BC
:1032C00070B504460D468548844208D0844884423F
:1032D00005D08448844202D08348844200D105E06E
:1032E00040F2DB31AFF23460FCF7E2FF7C4884420D
:1032F00003D1206A2843206202E0206A284320622A
:1033000070BD70B504460D467748844200D105E093
:1033100040F21C41AFF26460FCF7CAFF0DB1012D11
:1033200000D105E040F21D41AFF27860FCF7C0FF2C
:10333000012D06D194F8240040F0020084F8240006
:1033400006E02DB994F8240000F03D0084F8240034
:1033500070BD70B504460D466348844200D105E057
:1033600040F23441AFF2B460FCF7A2FF0DB1012D81
:1033700000D105E040F23541AFF2C860FCF798FF9C
:10338000012D06D194F8240040F0010084F82400B7
:1033900005E094F8240000F03E0084F8240070BD9D
:1033A0002DE9F04105460C464F48854200D105E025
:1033B00040F25541AFF20470FCF77AFF6CB1012C7A
:1033C0000BD0022C09D0032C07D0042C05D0052CDF
:1033D00003D0062C01D0072C00D105E040F2564165
:1033E000AFF23070FCF764FF6007870E95F8240099
:1033F00020F0380647F00400064306F03F0085F849
:103400002400BDE8F0812DE9F04104460D46164642
:1034100000273348844200D105E040F27541AFF205
:103420006C70FCF745FF0DB1012D00D105E040F2B5
:103430007641AFF28070FCF73BFF0EB1012E00D158
:1034400005E040F27741AFF29470FCF731FF15B11F
:10345000012D04D101E0012702E0022700E000BFB6
:1034600000BF012E03D1207C3843207404E0207C6F
:10347000F321B94308402074BDE8F0812DE9F04103
:1034800004460D4617461648844200D105E040F236
:103490009D41AFF2E070FCF70BFF1DB1012D01D093
:1034A000022D00D105E040F29E41AFF2F870FCF72A
:1034B000FFFE0FB1012F00D105E040F29F41AFF6B2
:1034C0000C00FCF7F5FE25B1012D04D0022D0FD123
:1034D0000CE010260DE040260BE0000000C000408C
:1034E000000001400080094000C00940802600E043
:1034F00000BF00BF012F03D1207C3043207404E0C3
:10350000207CF321B14308402074BDE8F08110B560
:1035100004468A48844200D105E04FF49961AFF631
:103520006C00FCF7C5FE207E10BD70B506460C464B
:103530008248864200D105E040F2DC41AFF68C00C3
:10354000FCF7B6FEA07810B1A078012800D105E004
:1035500040F2DD41AFF6A400FCF7AAFEE07810B11E
:10356000E078012800D105E040F2DE41AFF6BC0072
:10357000FCF79EFEE079FF2800DA05E040F2DF412B
:10358000AFF6D000FCF794FE607910B160790128A5
:1035900000D105E04FF49C61AFF6E800FCF788FE2F
:1035A000207910B12079012800D105E040F2E141F5
:1035B000AFF60010FCF77CFEA079FF2800DA05E0EA
:1035C00040F2E241AFF61410FCF772FE207810B121
:1035D0002078012800D105E040F2E341AFF62C103D
:1035E000FCF766FE607810B16078012800D105E034
:1035F00040F2E441AFF64410FCF75AFE0025E078B3
:1036000001280ED145F010056079012801D145F05F
:1036100020052079012801D145F00805E07986F8D8
:1036200054002078012801D145F00105A078012837
:1036300004D145F00405A07986F85000607808B9F7
:1036400045F0020505F03F0086F84C00307B40F065
:103650003800307370BD012906D190F84C2022F05B
:10366000020280F84C2005E090F84C2042F0020263
:1036700080F84C2070472DE9F04704468946924671
:103680001F46A7B1257BA84628F0100884F80C80B7
:103690000123524649462046FFF7B6FB064600BFC7
:1036A000207D00F040000028FAD025730CE00123B3
:1036B000524649462046FFF7A7FB064600BF207D3D
:1036C00000F040000028FAD03046BDE8F08713B57E
:1036D000044601231A4601A92046FFF7CCFF1CBD72
:1036E00070B504460D46164600233246294620464C
:1036F000FFF7C1FF70BD1CB5012202210020FEF7BB
:103700009FFD012203210020FEF79AFD6846FFF786
:1037100039FB4FF4E130009003208DF805000020C4
:103720008DF804008DF8060069460548FFF7ACF9EE
:1037300001210348FFF79DFA1CBD00000000014075
:1037400000C0004010B50122CF490020FEF742FB27
:10375000012251051046FEF73DFB01224FF4605156
:103760000220FEF737FB01224FF0C0610320FEF775
:1037700031FB10BD10B54FF400010020FEF748FBEF
:103780004FF080710020FEF743FB4FF40011012041
:10379000FEF73EFB4FF400610220FEF739FB4FF4C9
:1037A00080510220FEF734FB4FF400510220FEF757
:1037B0002FFB4FF000710320FEF72AFB4FF08061D2
:1037C0000320FEF725FB10BD10B520210020FEF7D9
:1037D00015FB20210020FEF71BFB10BDAB48406904
:1037E00040F48060A94948610846406920F480603F
:1037F0004861704710B54FF400010020FEF7FEFA53
:10380000FFF7E2FF4FF080710020FEF7F7FAFFF7B5
:10381000DBFF4FF400110120FEF7F0FAFFF7D4FFB1
:103820004FF400610220FEF7E9FAFFF7CDFF4FF4F5
:1038300080510220FEF7E2FAFFF7C6FF4FF4005175
:103840000220FEF7DBFAFFF7BFFF4FF00071032005
:10385000FEF7D4FAFFF7B8FF4FF080610320FEF7C0
:10386000CDFAFFF7B1FF10BD10B50446FFF7C2FF58
:103870000A2C15D2DFE804F005152030455A6F8474
:103880008FA44FF0C0710020FEF7C2FA4FF4001170
:103890000120FEF7BDFA4FF460510220FEF7B8FA9E
:1038A000A3E04FF080710020FEF7B2FA4FF4001150
:1038B0000120FEF7ADFA98E04FF0C0710020FEF74E
:1038C000A7FA4FF4C0510220FEF7A2FA4FF00071A0
:1038D0000320FEF79DFA88E04FF0C0710020FEF74C
:1038E00097FA4FF400110120FEF792FA4FF40061AD
:1038F0000220FEF78DFA4FF000710320FEF788FAE0
:1039000073E04FF080710020FEF782FA4FF400114F
:103910000120FEF77DFA4FF400510220FEF778FAFD
:103920004FF000710320FEF773FA5EE04FF40001E0
:103930000020FEF76DFA4FF400110120FEF768FA3F
:103940004FF420510220FEF763FA4FF0007103207C
:10395000FEF75EFA49E04FF400010020FEF758FA46
:103960004FF400110120FEF753FA4FF4605102208A
:10397000FEF74EFA4FF000710320FEF749FA34E0EB
:103980004FF0C0710020FEF743FA4FF40011012000
:10399000FEF73EFA29E04FF0C0710020FEF738FA3A
:1039A0004FF400110120FEF733FA4FF4605102206A
:1039B000FEF72EFA4FF000710320FEF729FA14E00B
:1039C0004FF0C0710020FEF723FA4FF400110120E0
:1039D000FEF71EFA4FF400510220FEF719FA4FF0DD
:1039E00000710320FEF714FA00BF00BFFFF7ECFEE2
:1039F00010BD10B50446FFF7BDFE092C36D2DFE836
:103A000004F035050B11171D23292F004FF4000179
:103A10000020FEF7F3F929E04FF080710020FEF757
:103A2000EDF923E04FF400110120FEF7E7F91DE066
:103A30004FF400610220FEF7E1F917E04FF48051E6
:103A40000220FEF7DBF911E04FF400510220FEF7EF
:103A5000D5F90BE04FF000710320FEF7CFF905E038
:103A60004FF080610320FEF7C9F900BF00BFFFF7E8
:103A7000B5FE10BD70B505460C462846FFF7B9FFE8
:103A80002046FFF7F1FE70BD300CB80100C00920E0
:103A9000002100E0491C8142FCD3704710B5044668
:103AA0000A2C65D2DFE804F06405101B26303A4486
:103AB0004E58012211071046FEF78CF94FF0805145
:103AC0000120FEF7A5F953E0012251071046FEF749
:103AD00081F94FF000510120FEF79AF948E00122E8
:103AE000D1071046FEF776F94FF000410120FEF7AE
:103AF0008FF93DE0012204210220FEF76BF9042139
:103B00000220FEF785F933E0012208210220FEF7AA
:103B100061F908210220FEF77BF929E0012210213A
:103B20000220FEF757F910210220FEF771F91FE07D
:103B3000012220210220FEF74DF920210220FEF76C
:103B400067F915E0012240210220FEF743F94021E8
:103B50000220FEF75DF90BE001224FF030411046E4
:103B6000FEF738F901227C210220FEF733F900BF6D
:103B700000BF10BD10B504460A2C3BD2DFE804F0AC
:103B80003A050B11171C21262B304FF080510120D4
:103B9000FEF734F92EE04FF000510120FEF72EF928
:103BA00028E04FF000410120FEF728F922E004212F
:103BB0000220FEF723F91DE008210220FEF71EF97E
:103BC00018E010210220FEF719F913E0202102204D
:103BD000FEF714F90EE040210220FEF70FF909E08C
:103BE0004FF030410120FEF709F97C210220FEF759
:103BF00005F900BF00BF10BD10B50446092C31D235
:103C0000DFE804F030050B11171C21262B004FF0C4
:103C100080510120FEF7FCF824E04FF00051012014
:103C2000FEF7F6F81EE04FF000410120FEF7F0F835
:103C300018E004210220FEF7EBF813E0082102202F
:103C4000FEF7E6F80EE010210220FEF7E1F809E0A9
:103C500020210220FEF7DCF804E040210220FEF7DC
:103C6000D7F800BF00BF10BD10B50446092C16D20E
:103C7000DFE804F08D05162738495A6B7C006A4846
:103C8000007830B90120FFF775FF01206649087000
:103C900005E00120FFF7B0FF00206349087076E0DF
:103CA0006248007830B90220FFF764FF01205F49C5
:103CB000087005E00220FFF79FFF00205B490870B5
:103CC00065E05B48007830B90320FFF753FF01201F
:103CD0005749087005E00320FFF78EFF0020544984
:103CE000087054E05348007830B90420FFF742FFD1
:103CF00001205049087005E00420FFF77DFF0020F7
:103D00004C49087043E04C48007830B90520FFF773
:103D100031FF01204849087005E00520FFF76CFFDE
:103D200000204549087032E04448007830B9062048
:103D3000FFF720FF01204149087005E00620FFF74A
:103D40005BFF00203D49087021E03D48007830B914
:103D50000720FFF70FFF01203949087005E0072011
:103D6000FFF74AFF00203649087010E03548007818
:103D700030B90820FFF7FEFE01203249087005E047
:103D80000820FFF739FF00202E49087000BF00BF50
:103D900010BD10B54FF080510120FEF72FF84FF005
:103DA00000510120FEF72AF84FF000410120FEF7F4
:103DB00025F804210220FEF721F808210220FEF751
:103DC0001DF810210220FEF719F820210220FEF72D
:103DD00015F840210220FEF711F810BD10B54FF084
:103DE00080510120FEF714F84FF000510120FEF73A
:103DF0000FF84FF000410120FEF70AF804210220DD
:103E0000FEF706F808210220FEF702F81021022032
:103E1000FDF7FEFF20210220FDF7FAFF40210220DE
:103E2000FDF7F6FF10BD00005415001055150010E9
:103E30005615001057150010581500105915001090
:103E40005A1500105B15001053EA020C00F069804F
:103E50002DE9F04B4FF00006002B1FBFB3FA83F59E
:103E600003FA05F424FA05F65E4012BF1643B2FACF
:103E700082F502FA05F4C5F120051EBF22FA05FC01
:103E800044EA0C04203556EA044C4FEA144418BFA7
:103E9000641C4FF000084FF00009904271EB030CD6
:103EA00039D3002919BFB1FA81F701FA07F6B0FA40
:103EB00080F700FA07F6C7F120071EBF20FA07FCBB
:103EC00046EA0C062037B6FBF4FCA7EB0507103FCB
:103ED00007F01F0BCBF120060CFA0BFB2CFA06F6B1
:103EE00044BFB3460026202FA4BF5E464FF0000B10
:103EF0005BEA060C08BF4FF0010B19EB0B09ABFB9B
:103F0000027C48EB0608C01B06FB02CC0BFB03CC73
:103F100071EB0C01C1E70B46024641464846BDE83D
:103F2000F08B13B54FF000004FF00001AFF30080AD
:103F3000BDE81C4070474FF0000200B513469446A0
:103F40009646203922BFA0E80C50A0E80C50B1F1F1
:103F50002001BFF4F7AF090728BFA0E80C5048BF05
:103F60000CC05DF804EB890028BF40F8042B08BFA3
:103F7000704748BF20F8022B11F0804F18BF00F89F
:103F8000012B70477546FCF7B3F9AE46050069464C
:103F9000534620F00700854618B020B5FCF716F907
:103FA000BDE820404FF000064FF000074FF000083A
:103FB0004FF0000B21F00701AC46ACE8C009ACE8BB
:103FC000C009ACE8C009ACE8C0098D46704710B51F
:103FD0000446AFF300802046BDE81040FCF7E1B88E
:103FE00001491820ABBEFEE7260002000C4000008D
:103FF000000000105C15000008010000A44700004C
:104000005C1500109C0500006C01000000062F00EC
:10401000A24A0400010316800102611EE13292CC23
:1040200002012A6A23600C02200F30063006FE1FB0
:10403000FE1F3006380718030A2007180318038CE0
:1040400001023172201700E003F80F9C0E8C1C8CCB
:10405000188C009800F801E007800E800E100B18F5
:104060009C18B80CF00FE0038026A15A10090E1816
:104070001B0C110C11060210110311039B018E0180
:10408000C038C06C60446044300260071844186C4B
:104090000C38BE1005E001F0037A10140618063043
:1040A00003F001F000F8009C310E33061E061C02DE
:1040B000E0063FFC73F021B8920C020121E7100BDF
:1040C0000200038001C000C0006002D2300221144F
:1040D000211C155E12032A151632201235701203A8
:1040E00002D20602111425A2214ED62088214810A2
:1040F00008D806F807E00130D2052AEAC405FC3FDB
:10410000FC3FE8092C30120002021B806C000633D1
:10411000E007E0070001253AF57F750C155C3510C6
:1041200045624564D17AE00A03F007380E180C0C9A
:104130001802D409180C380EF007E003B0214C0C1B
:10414000071901F0019801880803A16043F80F5E88
:10415000220002219C35F025ECD0071800FC1FFC42
:104160001F90100701F807180E0C0121C81805C090
:1041700003C00751113C41920210F8904C0B0C0007
:104180000E000F000F800DC03003116B270C0CB216
:1041900009148513F80F9031893009EC03FC071CD2
:1041A0000E001C98115E0005101C0C180E602009F2
:1041B000C007F00F381C1818325409CC03EC0F3C20
:1041C0000E1C1C2006121C2031D24582357C16C0E4
:1041D0007A3AE0C85A70DE05148021538407380605
:1041E000F007F0078CE005380CF80F604130521CE6
:1041F0002430091C1C381EF81BE019D1130C1CC0FC
:104200000B1BF0018A012114011F30091ACE1C0575
:1042100010001C80720416F8DC1AF85C17800F601E
:104220000A1810F8C3F81F080D1E14051807080017
:104230003800F00114121F61161F9C130138140975
:104240001770796E6D2603FD2E033D7C03400C181C
:10425000180420C229224A11440902EC0C2211132D
:10426000E20C024004201818980315D4200403C05F
:104270000602396E2218022C07F83FF83F1C70AF77
:10428000052119D9106C0503FC0F0C5E0310040CFA
:10429000FC070E1A18A541021E180003FA0770BC8D
:1042A0000A1F38381C300C700660DD04E008600C12
:1042B000701C30F01F903C08FE03FE0F060E06A196
:1042C00005B1022DB305E8050EFE0FFEA01DCC04BE
:1042D0008DA20529AEADB0053D3803C5A211DC4D58
:1042E000BB032D27038005F81FF81F0E4DD303DDF8
:1042F000CA043C0C0FF83F3C780E6006E007C08112
:104300000411A11DC5031533DC090EC03CF0F83FB4
:10431000E00FBF03A23002319EB1120F260C308095
:10432000070D15A005021406022531DC063807F03A
:1043300003E0B004353A10140C060606038601C6E5
:104340000066007600DE008E01060312360C64DD86
:104350004105021B18022530CD210320050EE01E69
:10436000F0024336D8022366CC0252C601E4058629
:10437000C386C32010041C303C02126C0212CC0213
:1043800010058C310C3302123602123C02E6382042
:104390001C05E007F81F9904193EA303C002F808A2
:1043A00006600E701C38F8401BFC0F02CA38920ED3
:1043B000190CC407916082E05E140907E006630EE1
:1043C0003F1C3CE0CEF79106198258041F06389C2A
:1043D0001E38C00876074C49B20E106030065DDE0C
:1043E000041D9B051BF80330331E00401C050E30D6
:1043F0001C1C1005ED000308042A7FFE7F10E95EF7
:10440000A97E0710181820430360BC6D14072D16F1
:10441000072D9409140570076003631DE005E13062
:1044200023C3610283663302236C1B02CC092C1A5E
:104430003C1E380E380E31051C090FE00C70183088
:1044400030183F043C040EC0075E04140503E00668
:1044500070F71D8107D006300E6007E0602D7904EB
:104460004C08301C383818300C65030D1C80075C74
:1044700005FC7FFC7F6D07DD7C072D2708253EEDC1
:1044800010082FE003AE06011E0221282DA60A6D9A
:10449000A6094DA8091D64096D0E0B7E03A009F144
:1044A000600221000261601D82071D4407256C3FE8
:1044B0006003D704291901390112FF010D39AE0A31
:1044C0009D4A081805F003F807AA2C070C000FF006
:1044D0000FF8B1081F0C1C5C080F16F01820041E02
:1044E000D8A80B1E38370881012DE0070F17D80315
:1044F000DA091D9A096F300E39092DA3081E309074
:1045000009EEC00009711F2805C01BF01F3681602D
:10451000000719301CF01FC01B601E0F83066E18A9
:10452000D4051952EC051CF00FC0F00644040FC06E
:104530000FDA2D9C0855E4B1020D17D40A1E0DFAAE
:10454000093DCA0961011D600924050FE00D002A1B
:104550006E06AA0895204F07F86A09D1010D16F0DA
:104560000A0215C002012E3041DEEC04F80078BECC
:104570000C1C050C0C060C6A0D100DCC006C00FC1C
:10458000009C018C030C03120E100C560C011C0233
:104590000D169009E0097C3CFF7EC7E383C1020D44
:1045A00016EA0B062398200510E099101D0E0E0A3E
:1045B00017C0700916A00D16EA070917700D151B14
:1045C000081EB06E07FE70E20D0E1830140D1E03AB
:1045D0007A0E1D1A0B1DF2093D060C0D15900C1DCF
:1045E000020F0919A00F170780EA0D09106A123887
:1045F000C01D4C0B0D15DB0A4DFE053E18920F1D1C
:10460000B7060E140300068DF80F3008C141C141F2
:10461000C3616301323601321C010D16F00F3E1CDE
:10462000F70952605A1D5E061D75061E38E10B0122
:1046300017C01D36061D38062E1828102FE00C94C2
:104640000A2D3E064DF00D1DA20D1D700C0D159A84
:104650000C0D1B800D8D300B8D320E2DE205BA40F6
:10466000D63D900F0D259009CD22119E6024069D08
:10467000C60FB3030048FEC0A80E5D7405000751C5
:1046800010F81F080F0001600DC003300C08100463
:10469000200420024002210E0C05120810300C34B8
:1046A000032D3E052FF81F1A102D82084102210EFE
:1046B0000F18F81F64031EE04C0EA9700F1CF00FBA
:1046C000F60F21302D9E056102011E30ADBC103A5F
:1046D000C04021660D10840A011430A16E0D10A88F
:1046E0000D1D24063D42041DE30C0E20030411A100
:1046F000B20122307D6C121D581010048C0186020C
:10470000128C0A00051EF001E001301006F801FCD1
:1047100001FE0212FC0A011E30100B8007800F8080
:1047200019803180610212310A00041F0F800730A6
:1047300010061F803F807F02123F0A0111301805CA
:10474000C001200233B00501300608012116E10244
:104750004DCE082D62091D4211A00407D80D027D1F
:10476000F6039102011260230410593240164310DF
:10477000041211026C042004402E09C1604C07CCC5
:1047800019C631C26142091F700680084D3A101DDA
:1047900069046D10090D1A84140C05321058015863
:0447A0006E030000A4
:04000005000000CD2A
:00000001FF
