:020000040000FA
:10000000C81A0010C1010000C9010000CB010000A6
:10001000CD010000CF010000D10100000000000070
:10002000000000000000000000000000D3010000FC
:10003000D501000000000000D7010000D901000038
:10004000DB01000093060000DB010000DB01000083
:10005000DB010000DB010000DB010000DB01000030
:10006000DB010000DB010000DB010000DB01000020
:10007000DB010000DB010000DB010000DB01000010
:10008000DB010000DB010000C5060000DB01000011
:10009000DB010000DB010000DB010000DB010000F0
:1000A000DB010000DB010000DB010000DB010000E0
:1000B000DB010000DB010000DB010000DB010000D0
:1000C000DB010000DB010000DB01000000F002F8B2
:1000D00000F066F80AA090E8000C82448344AAF17C
:1000E0000107DA4501D100F05BF8AFF2090EBAE87A
:1000F0000F0013F0010F18BFFB1A43F0010318475C
:100100001C5100003C51000010F8013B0A4413F060
:10011000030408BF10F8014B1D1108BF10F8015B64
:10012000641E05D010F8016B641E01F8016BF9D153
:10013000002D15D010F8014B03F00C030C2BA1EB94
:1001400004040ABF10F8013BA4EB8314A4EB0324BE
:1001500005F1010314F8016B5B1E01F8016BF9D581
:10016000914238BF10F8013BD1D3704700230024DF
:1001700000250026103A28BF78C1FBD8520728BFB7
:1001800030C148BF0B607047642904F0BF857329F4
:1001900004F0BF87002070471FB51FBD10B510BD0C
:1001A00004F0FCFF1146FFF7F7FF00F064FA05F0DA
:1001B0001AF803B4FFF7F2FF03BC05F021F80000C2
:1001C0000948804709480047FEE7FEE7FEE7FEE7EB
:1001D000FEE7FEE7FEE7FEE7FEE7FEE70448054927
:1001E000034A054B7047000099040000CD00000051
:1001F000C8180010C81A0010C818001000202E4996
:1002000008602E49C1F848012B490C31086070473D
:100210007047012909D1284A0C3212680123834012
:100220001A43264BC3F84C2109E041B9224A0C324B
:100230001268012383409A43204BC3F84C21704736
:10024000012909D11C4A08321268012383401A434C
:100250001A4BC3F8482109E041B9174A083212681D
:10026000012383409A43154BC3F84821704710B5CA
:10027000044600201049086061782078FFF7E0FF0D
:10028000A1782078FFF7C5FF10BD012181400A4AFF
:100290001160704718B5044664B900208DF800005D
:1002A00001208DF8010000208DF802006846FFF75C
:1002B000DEFF00BF00BF18BD40C10F4000C00F40AF
:1002C00000BFFEE710B501220A49002002F008FC39
:1002D00001225105104602F003FC01224FF4605147
:1002E000022002F0FDFB01224FF0C061032002F06A
:1002F000F7FB10BD300CB80170470000FFFFFFFF97
:100300002DE9F047B3480068C0F3016003287DD1B0
:10031000B0488430006800F0030030B1012830D0CC
:10032000022859D003282BD100E000BFA94800685B
:10033000C0F30740441C0221A6488838D0F8880042
:10034000C0F30E00401CA1FB0001A34B4FF0000CBA
:10035000A0FB037901FB039100FB0C1122466346CD
:10036000384604F0F7FB05469A487C300068C0B276
:10037000441C22460023284604F0ECFB9749086001
:1003800056E094480068C0F30740441C022191489D
:100390008838D0F88800C0F30E00401CA1FB001084
:1003A0008F4A4FF0000CA1FB027900FB029001FB89
:1003B0000C0122466346384604F0CCFB05468548CE
:1003C0007C300068C0B2441C22460023284604F05A
:1003D000C1FB824908602BE07E480068C0F30740FB
:1003E000441C02217B488838D0F88800C0F30E00F6
:1003F000401CA1FB00124FF400400023A1FB007938
:1004000002FB009001FB0301224600E011E03846A8
:1004100004F0A0FB05466F487C300068C0B2441C65
:1004200022460023284604F095FB6C49086000BF73
:1004300030E068488430006800F0030030B10128E3
:1004400010D0022819D0032823D100E000BF614852
:100450007C300068C0B2401C5F49B1FBF0F05F49DE
:10046000086016E05B487C300068C0B2401C5C4904
:10047000B1FBF0F0594908600BE056487C30006849
:10048000C0B2401C4FF40041B1FBF0F0534908608A
:1004900000BF00BFBDE8F0872020524908604D48EA
:1004A0008838D0F8A00100F0200030B100BF4D48DE
:1004B000006800F040000028F9D0032045497C3155
:1004C0000860002043498839C1F8A80145490C312A
:1004D000086001203F49843108600B203D49091F15
:1004E0000860AA203B49091D0860552008600120CA
:1004F000384908390860AA203649091D0860552086
:1005000034498839C1F88C0000BF3248006800F0D7
:1005100080600028F9D003202E4908390860AA20FD
:100520002C498839C1F88C0055202A49091D0860DA
:1005300000BF2848006800F04070B0F1407FF8D15B
:10054000232024491C310860AA2022498839C1F897
:10055000AC0055201F492431086001201D49183185
:100560000860AA201B4924310860552019498839A0
:10057000C1F8AC0000BF17482030006800F480606C
:100580000028F8D00320134918310860AA20114927
:100590008839C1F8AC0055200E492431086000BFED
:1005A0000C482030006800F44070B0F5407FF7D16F
:1005B0000D4808493C310860002006498839C1F8D7
:1005C000C8010846006820F4704040F4804008608C
:1005D0007047000088C00F4000093D000000001077
:1005E000001BB700A0C10F40DE87280410B5FFF73D
:1005F00005FE01220A21022002F0A8FC0020FFF7DC
:1006000049FE122000F065F810BD10B501203649F2
:100610000870642048600020344908700120487048
:10062000C87000208870087142F2107088602E4AED
:1006300000214FF0402002F0A5FD2C494FF0402052
:1006400002F09EFE012000F044F801214FF040200E
:1006500002F058FE10BD10B500F08BFBFFF7D5FF80
:1006600001F007F800F050FEFFF7C0FF01F04DF970
:1006700001F034FA10BDFFF7EEFF09E000F022FBB5
:1006800000F065FD00F0C2FF01F003FA01F0FDFB90
:10069000F4E710B500214FF0402002F017FD01F003
:1006A000D5FD00F0E2FF01F026FD01F033FD01F081
:1006B000A9FE08B101F0ACFE01F06EFE08B101F038
:1006C000D7FE10BD10B50020FFF7DFFD01F0CDF91A
:1006D00010BD00F01F02012191404209920002F179
:1006E000E022C2F80011704704000010F815001055
:1006F000800400BF011EA0F10100FBD1704710B5BE
:100700000446F948406920F04000F7494861204616
:1007100000F082FAF448406940F04000F249486134
:1007200010BD10B50446F048406920F04000EE4985
:10073000486144F4807000F06FFAEB48406940F083
:100740004000E949486110BD10B50446E6484069DB
:1007500020F04000E4494861491541EA242000F0B6
:100760005BFAE1B241F4807000F056FADE4840696D
:1007700040F04000DC49486110BD10B5DB48406ADC
:1007800020F04070D9494862D7488030006840F076
:100790008050D549C1F88000D448406A20F04060BC
:1007A000D2494862D048D0F8800040F00050CE498D
:1007B000C1F880000846D0F8940040F00050C1F81D
:1007C0009400CB48D0F8C40040F48060C849C1F818
:1007D000C4000846D0F8A80140F40010C1F8A801F0
:1007E000C148006840F04000BF490860402088616F
:1007F000BE48006820F47C20BC49086008460068B8
:1008000040F4282008600820BA49086006200861E2
:10081000022048600520FFF76BFFCF20FFF76FFF36
:100820000020FFF77EFF8320FFF77BFF3020FFF7DC
:1008300078FFED20FFF763FF6420FFF772FF0320CE
:10084000FFF76FFF1220FFF76CFF8120FFF769FFB2
:10085000E820FFF754FF8520FFF763FF0120FFF733
:1008600060FF7920FFF75DFFCB20FFF748FF3920BD
:10087000FFF757FF2C20FFF754FF0020FFF751FF31
:100880003420FFF74EFF0220FFF74BFFF720FFF762
:1008900036FF2020FFF745FFEA20FFF730FF00205A
:1008A000FFF73FFF0020FFF73CFFC020FFF727FFC7
:1008B0001D20FFF736FFC120FFF721FF1120FFF7B2
:1008C00030FFC520FFF71BFF3320FFF72AFF34203E
:1008D000FFF727FFC720FFF712FFBE20FFF721FF1A
:1008E000F620FFF70CFF0120FFF71BFF1020FFF79A
:1008F00018FF0020FFF715FF3A20FFF700FF5520F3
:10090000FFF70FFF3620FFF7FAFEB020FFF709FFD1
:10091000B120FFF7F4FE0020FFF703FF1B20FFF7D5
:1009200000FFB620FFF7EBFE0A20FFF7FAFEA22039
:10093000FFF7F7FEF220FFF7E2FE0020FFF7F1FEDF
:100940002620FFF7DCFE0120FFF7EBFEE020FFF79B
:10095000D6FE0F20FFF7E5FE2320FFF7E2FE1F2063
:10096000FFF7DFFE0920FFF7DCFE0F20FFF7D9FEBF
:100970000820FFF7D6FE4B20FFF7D3FEF220FFF74B
:10098000D0FE3820FFF7CDFE0920FFF7CAFE132066
:10099000FFF7C7FE0320FFF7C4FE1220FFF7C1FEDA
:1009A0000720FFF7BEFE0420FFF7BBFEE120FFF7A4
:1009B000A6FE0020FFF7B5FE1D20FFF7B2FE2020A7
:1009C000FFF7AFFE0220FFF7ACFE1120FFF7A9FEF4
:1009D0000720FFF7A6FE3420FFF7A3FE8120FFF7D4
:1009E000A0FE4620FFF79DFE0620FFF79AFE0E2090
:1009F000FFF797FE0C20FFF794FE3220FFF791FEE1
:100A00003820FFF78EFE0F20FFF78BFE1120FFF737
:100A100076FE0C20FFF76CFE2920FFF770FE3248AF
:100A2000D0F8940040F080502F49C1F8940010BDD8
:100A300070B504460D462A20FFF761FEC4F3072077
:100A4000FFF76FFEE0B2FFF76CFE6119491EC1F3BC
:100A50000720FFF766FE6119491EC8B2FFF761FE65
:100A600070BD70B504460D462B20FFF748FEC4F359
:100A70000720FFF756FEE0B2FFF753FE6119491E4B
:100A8000C1F30720FFF74DFE6119491EC8B2FFF7F9
:100A900048FE70BD70B505460C4601212846FFF79B
:100AA000C7FF01212046FFF7DCFF2C20FFF727FEC0
:100AB00011480088FFF748FE70BD0F490880704755
:100AC0000E490880704770B505464FF4A0710020AC
:100AD000FFF7AEFFF0210020FFF7C3FF2C20FFF748
:100AE0000EFE002410E0000000C0092000C00240FB
:100AF00000C00F40000003400C1500100E15001040
:100B00002846FFF721FE641CB4F5963FF8D370BD6C
:100B10002DE9F04180460E4617460024002510219D
:100B20004046FFF785FF18213046FFF79AFF2C203B
:100B3000FFF7E5FD00BF14E000250FE037F81400D3
:100B40000121A940084020B93B480088FFF7FCFD7F
:100B500003E03A480088FFF7F7FD6D1C102DEDDB30
:100B6000641C182CE8D3BDE8F08170B505460E462C
:100B70001446A4F12000C4B204EB4400304901EB58
:100B8000001231462846FFF7C3FF70BD2DE9F04142
:100B900005460C460026002707E0227829463846FD
:100BA000FFF7E3FF1037641C761C207808B10120A2
:100BB00000E00020142E01D2012100E000210840B5
:100BC0000028EAD1BDE8F08110B504461DA12046F9
:100BD000FFF7DCFF10BD2DE9F05F81460E4614469D
:100BE0001D46DDF828A004FB05FBD04621464846FB
:100BF000FFF71EFF29463046FFF733FF2C20FFF793
:100C00007EFD002704E038F8020BFFF79DFD7F1CF6
:100C10005F45F8D3BDE8F09F0146C1F308000F4AD5
:100C2000906000BF0D48C06800F010000028F9D1A6
:100C30000A488068C0B270470E1500100C150010ED
:100C40000C00001020202020202020202020202008
:100C50002020202020202020000000000000034051
:100C600070B5032001F07BFB0446042001F077FB04
:100C70000546052001F073FB06460A2094FBF0F0C0
:100C8000484908600A2094FBF0F100FB11404649F6
:100C900008600A2095FBF0F0444908600A2095FBA3
:100CA000F0F100FB1150424908600A2096FBF0F079
:100CB000404908600A2096FBF0F100FB11603E49B4
:100CC000086070BD10B53D4801F041FAFFF7C8FF5C
:100CD00039480178082003F053FD41F2883003F0D1
:100CE0005DFD34480178072003F04AFD41F2883069
:100CF00003F054FD2E480178062003F041FD41F237
:100D0000883003F04BFD29480178052003F038FDB9
:100D100041F2883003F042FD23480178042003F0BB
:100D20002FFD41F2883003F039FD1E480178032081
:100D300003F026FD41F2883003F030FD002102204F
:100D400003F01EFD41F2883003F028FD0021012050
:100D500003F016FD41F2883003F020FD03F0D0FBD4
:100D600003F0B8FB03F08CFB03F0BEFB03F070FB59
:100D700010BD10B500200B4908600B4908600B49F5
:100D800008600B4908600B4908600B49086003F0D4
:100D90005FFB422001F019FA084801F0F7F9FFF76C
:100DA00091FF10BD1015001014150010181500103B
:100DB0001C1500102015001024150010041600103A
:100DC000FE480068FE490843FC4908600846006A7E
:100DD00040F4001008620846006C40F400600864AB
:100DE0007047F648006840F02000F4490860084663
:100DF000006840F4806008600846006C40F4805051
:100E000008640846006C40F4005008647047EB48E2
:100E1000406940F01000E94948610846006820F444
:100E2000000008600846006820F0807008600846EE
:100E3000006E20F0007008660846006E20F08060AA
:100E400008667047DD48406920F40020DB494861AE
:100E50000846406940F4801048610846406940F403
:100E6000001048617047D548406940F40020D349DC
:100E700048610846406920F480104861084640698E
:100E800040F4001048617047CC48406940F40020AD
:100E9000CA4948610846406940F4801048610846E4
:100EA000406920F400104861704700B5FFF799FFD2
:100EB000C248406920F02000C049486108464069A6
:100EC00040F4806048610846406D40F480504865B9
:100ED0000846406D40F4005048650846406D40F4B7
:100EE000006048650846406D20F40060486500BD1C
:100EF00000B5FFF776FFB148406940F02000AF49E8
:100F000048610846406920F4806048610846406DA9
:100F100040F4805048650846406D40F400504865F4
:100F20000846406D40F4006048650846406D20F476
:100F30000060486500BD00B5FFF753FF9F4840695A
:100F400040F020009D4948610846406940F48060B7
:100F500048610846406D20F4805048650846406D61
:100F600040F4005048650846406D40F40060486514
:100F70000846406D20F40060486500BD00B5FFF7ED
:100F800030FF8E48406940F020008C494861084697
:100F9000406940F4806048610846406D40F48050EC
:100FA00048650846406D20F4005048650846406D8D
:100FB00040F4006048650846406D20F400604865D4
:100FC00000BD014600227D48406B20F400107B4BA1
:100FD0005863012906D118464069C0F3C05000B1DA
:100FE00000E00122022907D174484069C0F3006083
:100FF00008B1002200E00122032907D16F48406FA9
:10100000C0F3406008B1002200E00122042907D1AA
:101010006A48406FC0F3806008B1002200E00122FE
:101020006648406B40F40010644B5863D0B2704780
:1010300070B505461026412D02D1FFF703FF06E0EB
:10104000422D02D1FFF70FFF01E0FFF71DFFFFF771
:101050002CFF0120FFF7B5FF0446012C00D1032629
:101060000220FFF7AEFF0446012C00D10226032028
:10107000FFF7A7FF0446012C00D101260420FFF74B
:10108000A0FF0446012C00D10026FFF731FF01200C
:10109000FFF797FF0446012C00D107260220FFF737
:1010A00090FF0446012C00D106260320FFF789FF9C
:1010B0000446012C00D105260420FFF782FF0446D8
:1010C000012C00D10426FFF736FF0120FFF779FF3E
:1010D0000446012C00D10B260220FFF772FF0446C4
:1010E000012C00D10A260320FFF76BFF0446012CD8
:1010F00000D109260420FFF764FF0446012C00D12B
:101100000826FFF73BFF0120FFF75BFF0446012C99
:1011100000D10F260220FFF754FF0446012C00D116
:101120000E260320FFF74DFF0446012C00D10D26AB
:101130000420FFF746FF0446012C00D10C26304660
:1011400070BD2048007870471F48007870472DE92F
:10115000F04100263024002501F07DF907461B48A8
:1011600000F0F5FF4320FFF763FF06461848845D53
:10117000102E02D1102017490860102E70D015488B
:10118000006810286CD11348066001F03BF908B9DB
:10119000BDE8F081062F71D2DFE807F003458071CA
:1011A000908F302C22DB392C20DC01F043F90546EE
:1011B00005EB850004EB40000EE0000000C00920B4
:1011C000100038002815001029150010A416001072
:1011D000441700102C150010A0F13005122D21DC51
:1011E00000F043FA284601F028F91BE0432C0BD10C
:1011F00000F03BFA01F01EF905460A2095FBF0F5D8
:10120000284601F01AF90DE0522C0BD101F012F929
:101210000546122D06DC002D04DD00F026FA012023
:1012200001F01CF94BE0302C08DB392C06DC00F017
:101230001CFAA4F1300001F0BEF81EE0432C04D1EA
:1012400000F013FA01F0D0F817E0522C09D100F0A9
:101250000CFA012001F0A3F8052001F0FFF80CE0E2
:101260002EE0452C09D101F09DF8002001F0E5F8B1
:1012700000F0FBF9002001F0F1F820E01EE0462C20
:101280000BD100F0F2F9002001F0E8F801F08AF843
:10129000002001F0D2F800F0F2FB10E0452C01D064
:1012A000522C09D100F0E1F9002001F0D7F801F04B
:1012B00079F8002001F0C1F801E000E000BF00BFB4
:1012C00000BF65E73120174908703220487033208D
:1012D0008870342008713520487136208871372095
:1012E00008723820487239208872302048734320B1
:1012F000C8705220C8714520C8724620C8734F205C
:1013000008734C208873704710B5FFF7DBFFFFF7B9
:101310007EFD432000F059FF034800F037FFFFF740
:1013200016FF10BD44170010A416001000B587B0BA
:101330004FF6FF70FFF7C4FB4FF47840FFF7BDFB9B
:10134000182101A803F0F2FDE3A101A803F07AFC43
:1013500001A96020FFF71AFC07B000BD00B587B0F7
:101360004FF6FF70FFF7ACFB1F20FFF7A6FB18211D
:1013700001A803F0DBFDDDA101A803F063FC01A9D6
:101380006020FFF703FC07B000BD10B586B04FF634
:10139000FF70FFF795FB4FF47840FFF78EFB1821A5
:1013A000684603F0C3FD01F045F804462246D4A187
:1013B000684603F047FC69464820FFF7E7FB06B0A4
:1013C00010BD30B587B0002400254FF6FF70FFF741
:1013D00077FB4FF47840FFF770FB182101A803F06A
:1013E000A5FDCDA101A803F02DFC01A96020FFF708
:1013F000CDFB00BF09E004EB8401C90001F15A00F4
:101400005F228C21FFF7B1FB641C042CF3DB00F09E
:10141000E8FF0546002415E0AC4209DA04EB84013C
:10142000C90001F15A002A228221FFF79EFB08E041
:1014300004EB8401C90001F15A0020228221FFF748
:1014400094FB641C042CE7DB07B030BD10B586B0FC
:1014500000240020FFF734FB4FF6FF70FFF72DFB51
:101460001821684603F062FDB0A1684603F0EAFB6C
:1014700069464820FFF78AFB4FF6FF70FFF720FB15
:101480004FF47840FFF719FB1821684603F04EFD32
:10149000ADA1684603F0D6FB69467820FFF776FBDE
:1014A0001821684603F042FDACA1684603F0CAFB70
:1014B00069469020FFF76AFB1821684603F036FD65
:1014C000ABA1684603F0BEFB6946A820FFF75EFBB0
:1014D00000F0B0FF04461CB9C020FFF775FB10E018
:1014E00047F60F00FFF7E9FA1821684603F01EFDE2
:1014F0002246A4A1684603F0A5FB6946C020FFF779
:1015000045FB06B010BD10B54820FFF75DFB60201D
:10151000FFF75AFB7820FFF757FB9020FFF754FBAB
:10152000A820FFF751FBC020FFF74EFBD820FFF7A4
:101530004BFB10BD00B587B04FF6FF70FFF7C0FA48
:101540001F20FFF7BAFA00F05DFF60B9182101A86B
:1015500003F0ECFC8FA101A803F074FB01A9D820D3
:10156000FFF714FB02E0D820FFF72EFB07B000BD09
:1015700070B588B04FF47840FFF7A2FA4FF6FF70CD
:10158000FFF79BFA88A10020FFF700FB4FF6FF70E2
:10159000FFF796FA47F6EF30FFF78FFA182102A807
:1015A00003F0C4FC022000F0DAFE0446012000F043
:1015B000D6FE0546002000F0D2FE06462B463246F7
:1015C0007FA102A8009403F03DFB02A91820FFF7B9
:1015D000DDFA182102A803F0A9FC052000F0BFFEE7
:1015E0000446042000F0BBFE0546032000F0B7FED1
:1015F00006462B46324677A102A8009403F022FB50
:1016000002A93020FFF7C2FA08B070BD10B500F093
:1016100022FF04467448006800B910BD00207249DA
:101620000860FFF7A5FFFFF785FF00F009FF01281D
:1016300001D1FFF768FF062C13D2DFE804F00306A0
:101640000C09120FFFF702FF0CE0FFF7BAFE09E0EA
:10165000FFF79BFE06E0FFF781FE03E0FFF766FE63
:1016600000E000BF00BF00BFD7E701205E4908606F
:10167000704710B500205C49086004205B49087081
:1016800078205B490870FFF778F84FF6FF70FFF796
:101690001AFAFFF7EAFFFFF7B9FF10BD54490870C7
:1016A000704752490870704700B587B04FF6FF7019
:1016B000FFF706FA4FF47840FFF7FFF9182101A869
:1016C00003F034FC4BA101A803F0BCFA01A9782077
:1016D000FFF75CFA07B000BD202020576169742035
:1016E000666F72207365636F6E6400002020205760
:1016F000726F6E672050617373776F726420200081
:101700006F70656E65642020256420204C6F636BCC
:101710006572202000000000202020456E74657254
:101720002070617373776F726400000020202020A6
:1017300053656C656374204C6F636B657220202069
:1017400020202020202000002020312020322020B6
:101750003320203420203520203620002020372040
:101760002038202039203130203131203132200002
:1017700020313320313420313520313620313720AB
:101780003138200020202020202020202025642007
:101790000000000053657276657220446973636FC0
:1017A0006E6E63657465640020202046726964670C
:1017B00065204C6F636B65722020202020000000A4
:1017C00020444154453A202534642F2532642F2586
:1017D000326400002054494D453A202532643A25B0
:1017E00032643A25326400003415001030150010C0
:1017F000381500102020696E697469616C697A6916
:101800006E672E2E2E00000070B50446002500BF26
:1018100070E02021002001F077F94FF48061002072
:1018200001F07CF94FF40001002001F06DF94FF058
:101830008071002001F072F9A448006880086421DA
:10184000B0FBF1F6304602F0A9FF2021002001F0A4
:1018500065F94FF48061002001F056F94FF4000162
:10186000002001F051F94FF08071002001F056F98D
:101870009648006880086421B0FBF1F6304602F01B
:101880008DFF2021002001F049F94FF480610020F4
:1018900001F03AF94FF40001002001F03FF94FF058
:1018A0008071002001F030F98848006880086421C8
:1018B000B0FBF1F6304602F071FF2021002001F06C
:1018C00023F94FF48061002001F028F94FF4000162
:1018D000002001F023F94FF08071002001F014F98D
:1018E0007A48006880086421B0FBF1F6304602F0C7
:1018F00055FF6D1C04EB4400B5EB400F89D370BD60
:1019000010B50120FFF780FF10BD10B5412000F099
:101910005CFCFEF7D7FCFFF7F3FF6C48006880081B
:101920006421B0FBF1F4204602F038FFFFF7E8FF36
:101930006648006880086421B0FBF1F4204602F09C
:101940002DFFFFF7DDFF6148006880086421B0FBD0
:10195000F1F4204602F022FFFFF7D2FF5B48006857
:1019600080086421B0FBF1F4204602F017FF5848CC
:1019700000F00CFC10BD2DE9F04104460D46164662
:101980001F4624B12021002001F0BEF803E02021F1
:10199000002001F0C3F82EB14FF40001002001F047
:1019A000B3F804E04FF40001002001F0B7F82DB1C6
:1019B0004FF48061002001F0A7F804E04FF480614B
:1019C000002001F0ABF82FB14FF08071002001F042
:1019D0009BF804E04FF08071002001F09FF8BDE813
:1019E000F08170B5002400BF3CE000231A460121BD
:1019F0000846FFF7C0FF3548006880086421B0FB47
:101A0000F1F5284602F0CAFE0023012211461846CD
:101A1000FFF7B1FF2D48006880086421B0FBF1F5A5
:101A2000284602F0BBFE01231A4600210846FFF7B4
:101A3000A2FF2648006880086421B0FBF1F5284623
:101A400002F0ACFE0123002211461846FFF793FF77
:101A50001E48006880086421B0FBF1F5284602F0BA
:101A60009DFE641C062CC0D370BD1A48006810B9D6
:101A7000012019490860012016490860704715487F
:101A80000068012801D1144908600020114908604C
:101A9000704710B51048006800B910BD0C4800F040
:101AA00056FB0C480068012805D1FFF729FF0020EC
:101AB0000949086007E00748006820B9FFF791FF6F
:101AC00000200549086000BFE7E7000000000010A3
:101AD000541700103C1500104015001010B502F00E
:101AE00090FCF6A1FE4800F011FD0020FD490860C1
:101AF000FD49086000F089FC10BD10B56421FB4869
:101B000003F0F2F90020FA49087010BD10B5044640
:101B10002146F34800F0FAFC10BDF0B59BB0044636
:101B2000002600250027F2480078642802D1002012
:101B30001BB0F0BDEE48057821E00023642201A926
:101B4000E74802F033F8074607B917E09DF80400AC
:101B50001A901AA9E24800F0D9FC9DF86800E449FF
:101B600009786054E2480078401CE14908709DF80B
:101B700068000A2801D1012603E000BF6D1C642D16
:101B8000DBDB00BF0EB10120D2E70020D0E710B5AB
:101B9000044600202060D7A3D8A2DDA1204603F090
:101BA00051F810BD10B5044600202060D1A3DAA280
:101BB000D7A1204603F046F810BD38B504460020F2
:101BC0002060CCA0D9A3DBA2DDA10090204603F0C9
:101BD00039F838BD30B585B00446002500202060B6
:101BE00002900390049000F0F7FB3030C0B28DF803
:101BF0000800012000F0F0FB3030C0B28DF8090081
:101C0000022000F0E9FB3030C0B28DF80A0003205A
:101C100000F0E2FB3030C0B28DF80B0000F00AFC9F
:101C20000546B4A002ABC9A2CDA1CDE90050204623
:101C300003F008F805B030BD30B59DB0044600256E
:101C40000020019002900390642104A803F06EF933
:101C5000A8A2C6A101A802F0F5FF214604A803F03E
:101C60001FF9C3A104A803F015F905460CE001A96A
:101C7000284603F083F910B901201DB030BDBCA186
:101C8000002003F007F90546002DF0D10020F4E70D
:101C900010B59AB00446642101A803F047F995A352
:101CA000B4A29BA101A802F0CDFF01A9204603F038
:101CB00065F910B901201AB010BD0020FBE710B57E
:101CC0009AB00446642101A803F030F989A399A2CF
:101CD0008FA101A802F0B6FF01A9204603F04EF93A
:101CE00010B901201AB010BD0020FBE7FEB5054673
:101CF00001260020009001900290A2A1684603F006
:101D0000CFF8002406E01DF80400295D884200D0C9
:101D10000026641C072CF6DB002000900190029046
:101D200074A1684603F0BCF8002408E01DF8041014
:101D300004F11800285C814200D00026641C042CA9
:101D4000F4DB3046FEBD10B59AB00446642101A80C
:101D500003F0ECF867A370A26DA101A802F072FF76
:101D600001A9204603F00AF910B901201AB010BDEC
:101D70000020FBE7F0B599B00546012600241427A2
:101D80006421684603F0D2F881A278A1684602F087
:101D900059FF00BF06E01DF80400295D884200D00D
:101DA0000026641CBC42F6DB304619B0F0BD30B5ED
:101DB0009BB004460025642102A803F0B7F84DA0AB
:101DC00079A373A25EA1009002A802F03BFF214616
:101DD00002A803F0D3F800B9012528461BB030BD96
:101DE0002DE9F04F97B0054600BF00BF00BF00BF10
:101DF00000BF00BF502103A803F098F8002407E0BB
:101E000004F10900285C303803A941F82400641C5F
:101E10000E2CF5DB4FF47A7103984843049901EBDB
:101E2000C10202EB011100EB8100059901EB810178
:101E300000EB410006994618DDE9071001EB81012E
:101E400000EB4107DDE9091001EB810100EB4108DE
:101E5000DDE90B1001EB810100EB4109DDE90D101B
:101E600001EB810100EB410ADDE90F1001EB81017B
:101E700000EB410B4B46424639463046CDE900ABBC
:101E800000F05DFA17B0BDE8F08F00B599B064219D
:101E9000684603F04BF84548007801280CD1002033
:101EA00000F0B3FA1148FFF738FE1048FFF7C4FE00
:101EB000012802D10D487BE0A5E01AE168656C6C51
:101EC0006F20776F726C6420746869732069732067
:101ED00061726D2070726F636573736F72200A0098
:101EE00000C000405015001054150010F4170010E9
:101EF00046150010656E640A000000007265636597
:101F00006976655F68616E647368616B6500000087
:101F10002573202573000000636865636B5F636F42
:101F20006E6E656374696F6E0000000073756363A5
:101F300065737300646973636F6E6E65637400002C
:101F400025732025732025730000000072657175CC
:101F50006573745F7065726D697373696F6E00008D
:101F60002573202573202564202573002573000028
:101F70002000000073656E645F68616E6473686161
:101F80006B6500005379635F74696D650000000044
:101F900072657365706F6E73655F7065726D69737E
:101FA00073696F6E000000007965730044150010BE
:101FB000FFF76EFE80B1FFF7A0FD6846FFF7E7FD73
:101FC0006846FFF7A3FD0020554908705549086091
:101FD000012000F01AFA13E05348FFF770FE78B1C1
:101FE000FFF78BFD6846FFF7E8FD6846FFF78EFDBB
:101FF00001204B490870002000F007FA00F016FAA3
:10200000FFF77BFD75E046480078002871D146480F
:10201000FFF783FD4448FFF70FFE01284FD14248E8
:10202000FFF74DFE78B1FFF768FD6846FFF7C5FD85
:102030006846FFF76BFD012039490870002000F069
:10204000E4F900F0F3F93848FFF750FE012806D113
:102050003548FFF7C5FEFFF750FD00F0E7F93248BD
:10206000FFF788FE012816D12F48FFF7A0FE0128B0
:1020700005D1032000F0F2F9FFF7F7FC02E002209F
:1020800000F0ECF9FFF7F1FAFFF737FD00F0CEF9B9
:10209000002000F084F92448FFF755FE01280CD1F8
:1020A000FFF72BFD6846FFF77DFD6846FFF72EFD25
:1020B000012000F0AAF900F0B9F9FFF71EFD00F0C9
:1020C0006BF901280DD100F0E3F9012809D1684628
:1020D000FFF780FD6846FFF719FDFFF7C6FA00F02D
:1020E000D3F900F09BF920B100F0A0F901200C49D0
:1020F000087019B000BD00200C490860084600684F
:1021000010B901200A49086008480068401C0749C6
:102110000860704707480068401C0649086070471F
:102120004415001050150010F41700104C15001045
:10213000481500105415001002680A6002690A610F
:1021400042694A61C269CA6182698A61704700B5A1
:1021500003463D491846FFF7EFFF3B49203103F1A5
:102160002000FFF7E9FF3849403103F14000FFF755
:10217000E3FF3549603103F16000FFF7DDFF3249CD
:10218000803103F18000FFF7D7FF00BD00B50346A3
:1021900019462D48FFF7D0FF03F120012A482030CF
:1021A000FFF7CAFF03F1400127484030FFF7C4FFA3
:1021B00003F1600124486030FFF7BEFF03F18001A6
:1021C00021488030FFF7B8FF00BD412801D06128C9
:1021D00010D11D49496921F400211B4A5161114662
:1021E000496941F4801151611146496941F4001176
:1021F000516128E0422801D0622810D11249496972
:1022000041F40021104A51611146496921F48011BD
:1022100051611146496941F40011516113E04328AD
:1022200001D063280FD10849496941F40021064AC9
:1022300051611146496941F4801151611146496962
:1022400021F400115161704700C0092094490968C8
:10225000491C934A1160114609683C2291FBF2F037
:102260008F49096891FBF2F302FB13118C4A11604C
:102270008C49096801448B4A1160114609683C2267
:1022800091FBF2F08749096891FBF2F302FB13110D
:10229000844A1160844909680144834A11601146E7
:1022A0000968182291FBF2F07F49096891FBF2F36B
:1022B00002FB13117C4A11607C490968491E7B4A64
:1022C000116011460968014411607949794A126820
:1022D00051F82210754A126892FBF1F07449754A60
:1022E000126851F82210714A126892FBF1F301FB57
:1022F00013216E4A116011460968491C11606D492D
:102300000968491E6B4A1160114609680144116051
:10231000114609680C2291FBF2F06649096891FBAD
:10232000F2F302FB1311634A116011460968491C5C
:1023300011606149096801445F4A1160704770B5D6
:10234000DDE904455C4E30605A4E3160574E3260D4
:10235000554E3360534E3460514E356070BD01466A
:10236000062916D2DFE801F00306090C0F125248C5
:10237000006870474F480068FBE74C480068F8E782
:1023800049480068F5E747480068F2E744480068B4
:10239000EFE74FF0FF30ECE74848006870474749E7
:1023A0000860704700204649086048608860C8603F
:1023B00044490860704743490968042900DB7047B5
:1023C0003F49404A126841F822003E490968491CC9
:1023D0003C4A116000BFF2E70146394850F821003D
:1023E0007047384800687047354850B13548006834
:1023F000401E3449086000203149324A126841F8D1
:10240000220070473048006870472F4908607047C5
:102410002E480068401E2D49086070472B48006810
:10242000002801DC012070470020FCE764202749D8
:102430000860704726480068704725490860704763
:1024400024480068012804D10020224908600120A6
:1024500070470020FCE72048006870471E49096863
:10246000814204D01C49086001211A4A116070475A
:102470001A480068401E194908600846006800288C
:1024800001DA002008607047012014490860704795
:102490001248006808B9012070470020FCE70000DE
:1024A0006C15001068150010641500106015001000
:1024B000701500105C15001058150010A4150010C0
:1024C00058180010A8150010AC150010B015001019
:1024D000B4150010BC150010B8150010C015001080
:1024E00013B5044601231A4601A9204601F012FB48
:1024F0001CBD38B504460020009001231A466946E9
:10250000204601F053FB9DF8000038BD70B506462B
:102510000D462C4604E014F8011B3046FFF7E0FF9F
:1025200020780028F7D170BD70B504460D462946C5
:102530002046FFF7EBFFE1A12046FFF7E7FF70BD64
:102540002DE9F04105460C460A2094FBF0F100FB12
:102550001140C6B20A2094FBF0F00A2190FBF1F280
:1025600001FB1200C7B2642094FBF0F090FBF1F283
:1025700001FB120000F0FF0808F13000C1B228464C
:10258000FFF7AEFF07F13000C1B22846FFF7A8FF02
:1025900006F13000C1B22846FFF7A2FFBDE8F08186
:1025A0002DE9F04705460C460A2094FBF0F100FBAC
:1025B0001140C6B20A2094FBF0F00A2190FBF1F220
:1025C00001FB1200C7B2642094FBF0F090FBF1F223
:1025D00001FB120000F0FF084FF47A7094FBF0F05A
:1025E00090FBF1F201FB120000F0FF0942F21070C3
:1025F00094FBF0F090FBF1F201FB120000F0FF0AF7
:102600000AF13000C1B22846FFF76AFF09F1300035
:10261000C1B22846FFF764FF08F13000C1B2284676
:10262000FFF75EFF07F13000C1B22846FFF758FF01
:1026300006F13000C1B22846FFF752FFBDE8F0872F
:102640002DE9F34F83B00C460A20B4FBF0F100FBF8
:102650001145B4FBF0F00A21B0FBF1F201FB1206C8
:102660006420B4FBF0F0B0FBF1F201FB12074FF471
:102670007A70B4FBF0F0B0FBF1F201FB120842F209
:102680001070B4FBF0F0B0FBF1F201FB12098C48C2
:10269000B4FBF0F0B0FBF1F201FB120A8948B4FB85
:1026A000F0F0B0FBF1F201FB120B8748B4FBF0F045
:1026B000B0FBF1F201FB120002908448B4FBF0F091
:1026C000B0FBF1F201FB120001908148B4FBF0F085
:1026D000B0FBF1F201FB1200009000983030C1B263
:1026E0000398FFF7FDFE01983030C1B20398FFF761
:1026F000F7FE02983030C1B20398FFF7F1FE0BF1FC
:102700003000C1B20398FFF7EBFE0AF13000C1B20E
:102710000398FFF7E5FE09F13000C1B20398FFF717
:10272000DFFE08F13000C1B20398FFF7D9FE07F1D0
:102730003000C1B20398FFF7D3FE06F13000C1B2FA
:102740000398FFF7CDFE05F13000C1B20398FFF703
:10275000C7FE05B0BDE8F08F2DE9F04107460D46F4
:102760005CA13846FFF7D2FE012600BFB00045FA53
:1027700000F000F00F04092C02DD04F1370001E045
:1027800004F13000C1B23846FFF7AAFE301EA6F1B0
:102790000101CEB2EAD1BDE8F0812DE9F041074652
:1027A0000D464CA13846FFF7B1FE032600BFB0002E
:1027B00045FA00F000F00F04092C02DD04F13700A7
:1027C00001E004F13000C1B23846FFF789FE301E47
:1027D000A6F10101CEB2EAD1BDE8F0812DE9F041C8
:1027E00007460D463BA13846FFF790FE072600BF7F
:1027F000B00025FA00F000F00F04092C02DD04F10E
:10280000370001E004F13000C1B23846FFF768FE3E
:10281000301EA6F10101CEB2EAD1BDE8F0811FB5AC
:1028200001208DF8020000208DF804008DF80300CF
:1028300002208DF8010000208DF80000684600F0AD
:1028400073FB03208DF80100684600F06DFB02A8C1
:1028500001F01EF94FF4E130029002A91E4800F089
:1028600099FF01211C4801F08AF8AFF25F301B4943
:102870000860AFF24B301A490860AFF29B3019493B
:102880000860AFF22B1018490860AFF2F100174949
:102890000860AFF2B70016490860AFF25B30154927
:1028A0000860AFF2033014490860AFF26B2013499F
:1028B0000860AFF2C130124908601FBD0A0D000068
:1028C000A086010040420F008096980000E1F505C7
:1028D00000CA9A3B3078000000C00040C4150010C8
:1028E000C8150010CC150010DC150010E015001004
:1028F000E4150010D0150010D4150010D8150010E4
:10290000E815001010B50A46202801D2034601E060
:10291000A0F120031946202810D2454B1B68032440
:102920008C40A343434CC4F8A831414B1B6802FAC6
:1029300001F423433F4CC4F8A83111E03C4B1B1D6C
:102940001B6803248C40A3433A4CC4F8AC31384B89
:102950001B1D1B6802FA01F42343364CC4F8AC314A
:1029600010BD0146202903D20A46314B186804E005
:10297000A1F120022E4B1B1D186820FA02F303F070
:102980000300704770B506462B4804683046FFF7D1
:10299000E8FF054635B1012D06D0022D06D0032DE6
:1029A00008D105E0042505E0012503E0022501E04A
:1029B000082500BF00BFB4FBF5F4204670BD012917
:1029C00009D11C4AC43212681C4B03401A43194BEC
:1029D000C3F8C42009E041B9164AC4321268174B43
:1029E00083431A40134BC3F8C42070470020114999
:1029F000C031086030BF70470420114908600020D2
:102A00000C49C031086030BF704704200C49086091
:102A100001200849C031086030BF704704200849D0
:102A2000086003200349C031086030BF70470000D0
:102A3000A8C10F4000C00F4000000010DEF7EFEF0C
:102A400010ED00E001460020052912D2DFE801F078
:102A50000305080B0E00FB480CE0FA48203009E0A3
:102A6000F848403006E0F748603003E0F548803031
:102A700000E000BF00BF704701460020052912D2C8
:102A8000DFE801F00305080B0E00EE480CE0ED480E
:102A9000203009E0EB48403006E0EA48603003E0CF
:102AA000E848803000E000BF00BF704701460020CA
:102AB000052912D2DFE801F00305080B0E00E148FA
:102AC0000CE0E048203009E0DE48403006E0DD4818
:102AD000603003E0DB48803000E000BF00BF70479B
:102AE0002DE9F04107460D4616463846FFF7AAFF86
:102AF00004463CB11EB120682843206002E02068F3
:102B0000A8432060BDE8F08170B506460C4630460B
:102B1000FFF798FF054605B1AC6170BD70B506467C
:102B20000C463046FFF78EFF054605B1EC6170BDDF
:102B300070B505462846FFF785FF04460CB160696D
:102B400070BD0020FCE718B912B9BF4B196017E03F
:102B5000022804D11AB9BC4B2033196010E028B9FF
:102B6000012A03D1B84B1B1D196009E0022805D1C9
:102B7000012A03D1B44B2433196001E000BFFEE702
:102B8000704703463BB932B9AF480C380068C840BB
:102B900000F001007047022B07D132B9AA48143067
:102BA0000068C84000F00100F4E743B9012A06D1EB
:102BB000A54808380068C84000F00100EAE7022B89
:102BC00008D1012A06D1A04818300068C84000F09A
:102BD0000100DFE700BFFEE718B99B4A121F116032
:102BE00007E0022803D1984A1C32116001E000BFBF
:102BF000FEE7704770B504460D4616463246294634
:102C00002046FFF76DFF70BD70B504460D4629469E
:102C10002046FFF779FF70BD70B504460D46294682
:102C20002046FFF77BFF70BD10B504462046FFF736
:102C30007FFF10BD70B504460D4616463246294644
:102C40002046FFF780FF70BD70B504460D4616465E
:102C5000324629462046FFF794FF70BD10B5034663
:102C60000C4621461846FFF7B7FF10BD2DE9F0418D
:102C700007460D4616463846FFF7E4FE04463CB1CB
:102C80001EB120692843206102E02069A843206129
:102C9000BDE8F0812DE9F04180460E4615461F46FD
:102CA0004046FFF7E9FE04468CB147B11EB160888B
:102CB000284360800BE020882843208007E01EB175
:102CC0006088A843608002E02088A8432080BDE897
:102CD000F0812DE9F04180460E4615461F464046DC
:102CE000FFF7CAFE04468CB147B11EB1608A284383
:102CF00060820BE0208A2843208207E01EB1608AB0
:102D0000A843608202E0208AA8432082BDE8F081C7
:102D10002DE9F04107460E4614463846FFF7ACFE53
:102D200005461DB10EB16C8300E02C83BDE8F08137
:102D30002DE9F04107460E4614463846FFF79CFE43
:102D400005461DB10EB1EC8300E0AC83BDE8F08117
:102D500070B506460D463046FFF78EFE044624B198
:102D60000DB1E08A70BDA08AFCE70020FAE72DE9EA
:102D7000F04180460C4616461F464046FFF796FE39
:102D800005465DB12FB1032C08DC285D3043285582
:102D900004E0032C02DC285DB0432855BDE8F08137
:102DA0002DE9F04180460C4616461F464046FFF787
:102DB0007DFE05469DB14FB1032C10DC05F11000DE
:102DC000005D304305F11001085508E0032C06DCD6
:102DD00005F11000005DB04305F110010855BDE894
:102DE000F0812DE9F04107460C4615463846FFF7BD
:102DF0005DFE064626B1032C02DC06F118000555DF
:102E0000BDE8F0812DE9F04107460C4615463846ED
:102E1000FFF74CFE064626B1032C02DC06F11C002F
:102E20000555BDE8F08170B506460C463046FFF703
:102E30003DFE054655B1032C08DC05F11400005D8C
:102E400070BD000000C00920908002400020F7E71C
:102E5000F0B504460B46154619466000434A102952
:102E600001D31039401C52F820604FEA410C03276F
:102E700007FA0CF7BE4342F8206052F820604F007A
:102E800005FA07F73E4342F82060F0BDF0B504466E
:102E90000B46154619466000344A4032102901D3CA
:102EA0001039401C52F820604FEA410C032707FA02
:102EB0000CF7BE4342F8206052F820604F0005FA3C
:102EC00007F73E4342F82060F0BD30B50B46274976
:102ED0006831012A07D151F8204001259D402C433B
:102EE00041F8204006E051F8204001259D40AC43C8
:102EF00041F8204030BD012806D11C49896A41F0C3
:102F000008011A4A916206E028B91849896A21F035
:102F10000801164A91627047012800D1052201B9C3
:102F20000A22124BDA67704710B50446A27861781E
:102F30002078FFF78DFFE27861782078FFF7A6FF11
:102F4000227961782078FFF7C0FF10BD7CB5064676
:102F50000C4615468DF80060E0B28DF801008DF842
:102F600002506846FFF7E0FF7CBD000000C0024051
:102F700070B5054635B1012D09D0022D0CD0032DB9
:102F800014D10EE00220FFF7FDFC04460EE0042001
:102F9000FFF7F8FC044609E02C20FFF7F3FC044699
:102FA00004E02E20FFF7EEFC044600BF00BF2046E1
:102FB00070BD2DE9F04781460C464846FFF7D8FF23
:102FC0000026054600232946A1FB047C06FB04C21B
:102FD00005FB0321FB4A384601F0BCFD05462846A7
:102FE000BDE8F08701464FF0FF30B1F1402F01D12D
:102FF00000200DE0F44A914201D1012008E0F34A9B
:10300000914201D1022003E0F14A914200D1032014
:10301000704770B505460C46B5F1402F08D0EA4818
:10302000854205D0E948854202D0E948854200D171
:1030300003E0AC21E7A0FDF743F94CB1012C07D028
:10304000022C05D0032C03D0042C01D0052C00D178
:1030500003E0AD21DFA0FDF733F928680121A1408D
:103060000840C6B20EB1012070BD0020FCE770B56B
:1030700005460C46B5F1402F08D0D348854205D00F
:10308000D248854202D0D248854200D103E0CA210D
:10309000D0A0FDF715F94CB1012C07D0022C05D0BA
:1030A000032C03D0042C01D0052C00D103E0CB214C
:1030B000C8A0FDF705F92868211D01228A401040AB
:1030C000C6B20EB1012070BD0020FCE770B5054608
:1030D0000C46B5F1402F08D0BB48854205D0BB480F
:1030E000854202D0BA48854200D103E0E321B9A06D
:1030F000FDF7E6F84CB1012C07D0022C05D0032CCB
:1031000003D0042C01D0052C00D103E0E421B1A0B0
:10311000FDF7D6F80120A040286070BD70B50546C7
:103120000C46B5F1402F08D0A748854205D0A748E6
:10313000854202D0A648854200D103E0FA21A5A02D
:10314000FDF7BEF84CB1012C07D0022C05D0032CA2
:1031500003D0042C01D0052C00D103E0FB219DA05D
:10316000FDF7AEF8201D01218140296070BD20B916
:103170000A4601231370536003E00A46002353708C
:1031800000BF70472DE9F04704460D461646B4F1DE
:10319000402F08D08C48844205D08C48844202D00D
:1031A0008B48844200D104E040F2311189A0FDF740
:1031B00087F81DB1012D01D000D000D104E04FF4FB
:1031C000997184A0FDF77CF8B4F1402F08D101215A
:1031D0000220FFF7F4FB00210220FFF793FB22E01F
:1031E0007948844208D101210420FFF7E8FB00213F
:1031F0000420FFF787FB16E07448844208D10121C0
:103200008805FFF7DCFB00212C20FFF77BFB0AE0A1
:103210006F48844207D10121C805FFF7D0FB002188
:103220002E20FFF76FFBA06A20F00300A062A06AC7
:10323000A0620020A0602061E060606840F00200B1
:103240006060606820F00200606085B937463878B9
:1032500018B97868401EE06017E02046FFF7C2FE0C
:1032600081467968FFF7A5FE401EE0600DE0B0469C
:10327000A06A20F00C00A062464698F801000128E0
:1032800003D1A06A40F00400A0624FF0FF3020603C
:10329000BDE8F08710B50446B4F1402F08D04A4885
:1032A000844205D04948844202D04948844200D132
:1032B00004E040F27F1147A0FDF702F800206060B3
:1032C000B4F1402F04D100210220FFF778FB18E071
:1032D0003D48844204D100210420FFF770FB10E038
:1032E0003A48844205D100214FF48000FFF767FB84
:1032F00007E03748844204D100214FF48000FFF7F3
:103300005EFB10BD70B504460D46B4F1402F08D0E9
:103310002D48844205D02D48844202D02C48844256
:1033200000D104E04FF4D0712AA0FCF7C9FF012DB1
:1033300004D1606840F00100606003E0606820F044
:103340000100606070BD10B50446B4F1402F08D094
:103350001D48844205D01D48844202D01C48844246
:1033600000D104E04FF4DC711AA0FCF7A9FF6068FB
:1033700040F002006060606820F00200606010BDF4
:1033800070B504460D46B4F1402F08D00E48844273
:1033900005D00E48844202D00D48844200D104E09A
:1033A00040F2D7110BA0FCF78BFF287940B12879A8
:1033B000012805D02879022802D02879032811D1C4
:1033C00016E0000040420F0000800040000009406D
:1033D000004009406C7063313778785F74696D65BF
:1033E000722E63004FF4EC71AFF21800FCF768FF27
:1033F000287830B1012807D0022808D003280CD142
:1034000008E0A868A0610AE0A868E06107E0A86891
:10341000206204E0A868606201E000BFFEE700BF30
:103420006069297801EB410207219140884360617E
:10343000687838B16069297801EB41020121914037
:1034400008436061E87840B16069297801EB410187
:10345000491C01228A4010436061A87840B160692C
:10346000297801EB4101891C01228A4010436061E7
:10347000E06B2978042202EB41020321914088434A
:10348000E063287900F003002978042202EB41016F
:103490008840E16B0843E06370BD70B504460E469A
:1034A0001546B4F1402F08D04348844205D0434824
:1034B000844202D04248844200D105E040F20D210E
:1034C000AFF2F000FCF7FCFE36B1012E06D0022E62
:1034D00006D0032E08D105E0A56107E0E56105E00F
:1034E000256203E0656201E000BFFEE700BF70BD3A
:1034F00070B504460D46B4F1402F08D02E488442E2
:1035000005D02E48844202D02D48844200D105E0E7
:1035100040F23321AFF24410FCF7D2FEA06A2978C2
:1035200001EB4102072191408843A062687838B1DD
:10353000A06A297801EB4102012191400843A06271
:10354000A87840B1A06A297801EB4101491C012209
:103550008A401043A062E87840B1A06A297801EB64
:103560004101891C01228A401043A06270BD70B5E0
:1035700004460D46B4F1402F08D00F48844205D0D0
:103580000E48844202D00E48844200D105E040F249
:103590004E21AFF2C010FCF793FE0DB1012D00D10A
:1035A00005E040F24F21AFF2D410FCF789FE0DB9CF
:1035B000E06A70BD206BFCE700800040000009401D
:1035C000004009402DE9F04F8BB0044689460020A9
:1035D0000990F748844204D10620FFF7D3F9074643
:1035E00016E0F448844204D10820FFF7CBF90746DF
:1035F0000EE0F148844204D13020FFF7C3F90746BA
:1036000006E0EE48844203D13220FFF7BBF90746BB
:103610004FF0FF3B00200790069000252E464FF00C
:1036200001084DE00020089040E00898404400FB6D
:1036300009FC0020010741EA171138070022A0FB0E
:10364000083E01FB08E100FB02106246CDE90030B4
:103650000023DDE9000101F07DFACDE904010498C1
:103660000390DDF814A00398B0F1004F04D903983B
:10367000404203900AF1010ABAF1000F02D0BAF5F4
:10368000803F00D90FE0039858450BD2DDF80CB00D
:103690000026554608980790CDF81880BBF1000F1A
:1036A00000D106E000BF0898401C089008984045EB
:1036B000BBD300BFBBF1000F00D104E008F101084B
:1036C000B8F10F0FAED900BF002185EA01007140AB
:1036D000084302D10BB0BDE8F08F3809069900FB12
:1036E00001FC0846079908440021A0FB052301FBC3
:1036F000053100FB06100346CDE90020604600219D
:1037000001F028FA02900298814503D90298A9EBAA
:10371000000B02E00298A0EB090B64200BFB00F009
:10372000B0FBF9FBBBF1030F32D2A248844216D1A1
:10373000207B40F080002073280A40EA0660207158
:103740002570207B00F07F002073F021069801EAAD
:103750000010079901F00F010843A06216E0207BDA
:1037600040F080002073280A40EA0660207125702E
:10377000207B00F07F002073F021069801EA001002
:10378000079901F00F01084384F8280001200990EF
:1037900009989FE770B504460D468548844208D0D5
:1037A0008448844205D08448844202D083488442BD
:1037B00000D103E0D12182A0FCF782FD687940B1FD
:1037C0006879012805D06879022802D06879032831
:1037D00000D103E0D2217AA0FCF772FDA87910B1E4
:1037E000A879012800D103E0D32175A0FCF768FD7A
:1037F000287958B12879012808D02879022805D0DD
:103800002879032802D02879042800D103E0D421A4
:103810006BA0FCF755FD6648844203D101210820C6
:10382000FFF7CDF86348844203D101211020FFF750
:10383000C6F86148844203D101210806FFF7BFF8AA
:103840005E48844203D101214806FFF7B8F8594881
:10385000844223D1072020720020207200E02678C5
:10386000207D00F001000028F9D1802084F830008C
:1038700000BF207D00F020000028FAD0002084F84E
:103880003000606020732062207484F84C0084F85B
:10389000540084F85000267E267D1AE0072020720E
:1038A0000020207200E02678207D00F00100002832
:1038B000F9D1802084F8300000BF207D00F0200086
:1038C0000028FAD0002084F8300060602073206265
:1038D000267D3A48844202D1002084F82400204604
:1038E0002968FFF76FFE3348844203D1207B00F044
:1038F000C00602E0207B00F0C006687930B10128E4
:1039000006D0022807D0032808D108E000BF09E04C
:1039100046F0010606E046F0020603E000BF46F06E
:10392000030600BF00BF2879C0B146F00806287919
:10393000012806D0022806D0032807D004280BD17E
:1039400007E000BF09E046F0100606E046F020065A
:1039500003E046F0300600E000BF00BFA87928B1C0
:10396000012802D146F0040601E000BF00BF00BFFD
:103970001048844201D1267300E0267370BD70B5F3
:1039800004460D460A48844208D00A48844205D0BD
:103990000948844202D00948844200D104E040F240
:1039A000F23107A0FCF78CFC0DB1012D10D115E010
:1039B00000C00040000001400080094000C00940F4
:1039C0006C7063313778785F756172742E630000B4
:1039D00040F2F331AFF21800FCF772FC012D10D168
:1039E000F948844206D194F8300040F0800084F811
:1039F000300014E094F8300040F0800084F830008B
:103A00000DE0F148844205D194F83000002084F89C
:103A1000300004E094F83000002084F8300070BDDD
:103A200010B50446E948844208D0E748844205D0EE
:103A3000E748844202D0E748844200D105E040F2E2
:103A40009D11AFF28400FCF73BFC00212046FFF7FC
:103A500096FFDE48844203D100210820FEF7AFFF25
:103A6000D948844203D100211020FEF7A8FFD8488E
:103A7000844204D100214FF08070FEF7A0FFD548AA
:103A8000844204D100214FF00070FEF798FF10BD72
:103A90004FF4E13101600321417100210171817115
:103AA000704770B504460D46C848844208D0C648E1
:103AB000844205D0C648844202D0C648844200D120
:103AC00005E040F2E111AFF20810FCF7F9FBBE4847
:103AD000844201D1257000E0257070BD10B5044608
:103AE000BA48844208D0B848844205D0B8488442D5
:103AF00002D0B848844200D105E04FF4FD71AFF226
:103B00004010FCF7DDFBB048844201D1207810BDA5
:103B10002078FCE72DE9FF5F80468A4693465746AA
:103B20005C460398012825D1002520E04FF0FF399D
:103B300005E0B9F1000F00D107E0A9F1010998F8FB
:103B4000140000F020000028F3D000BFB9F1000FEE
:103B500000D10EE0102607E017F8011B4046FFF7E2
:103B6000A0FF761E641E6D1C0EB1002CF4D1002C3B
:103B7000DCD117E0002512E098F8140000F02000D6
:103B800000B90EE0102607E017F8011B4046FFF7CA
:103B900088FF641E761E6D1C0EB1002CF4D1002C23
:103BA000EAD100BF284604B0BDE8F09F2DE9F05FE0
:103BB0000746894692469B464E465546BBF1010F45
:103BC0001ED1002419E04FF0FF3805E0B8F1000FD6
:103BD00000D106E0A8F10108387D00F001000028BE
:103BE000F4D000BFB8F1000F00D108E03846FFF76D
:103BF00075FF06F8010B6D1E641C002DE3D110E06B
:103C000000240BE0387D00F0010000B908E03846E0
:103C1000FFF764FF06F8010B641C6D1E002DF1D147
:103C200000BF2046BDE8F09F10B5044667488442B7
:103C300008D06548844205D06548844202D0654872
:103C4000844200D105E04FF42371AFF28C20FCF7E1
:103C500037FB5D48844204D1207B40F04000207354
:103C600003E0207B40F04000207310BD2DE9F041BF
:103C700004460D4617465548844208D052488442AF
:103C800005D05348844202D05248844200D105E016
:103C900040F2B321AFF2D820FCF712FB0FB1012F95
:103CA00000D105E04FF42D71AFF2EC20FCF708FBDA
:103CB000072D15D2DFE805F00406080A0C0E1100E6
:103CC00001260DE002260BE0042609E0082607E0A5
:103CD000802605E04FF4807602E04FF4007600BFC6
:103CE00000BF3948844214D15DB1012D09D0022DA5
:103CF00007D0052D05D0062D03D0032D01D0042DAE
:103D000000D116E04FF43471AFF24C30FCF7D8FA22
:103D10000FE03DB1012D05D0022D03D0052D01D0BE
:103D2000062D00D105E04FF43571AFF26C30FCF791
:103D3000C7FA012F0AD12448844203D16068304376
:103D4000606013E06068304360600FE01E488442AA
:103D500006D1606840F28F31B1430840606005E0F1
:103D6000606840F20731B14308406060BDE8F0810F
:103D700010B504461548844208D01348844205D043
:103D80001348844202D01348844200D105E040F237
:103D90000231AFF2D430FCF793FA0B48844201D1E0
:103DA000007D10BD207DFCE710B504460748844225
:103DB00008D00548844205D00548844202D0054811
:103DC000844209D10EE000000000014000C0004024
:103DD0000080094000C0094040F21931AFF2204094
:103DE000FCF76EFAA06840F2CF31084010BD0146E2
:103DF000087D00F0400008B1002070470120FCE77A
:103E000070B506460C460025F748864208D0F748AC
:103E1000864205D0F648864202D0F648864200D156
:103E200005E040F23F31AFF26840FCF749FAE07834
:103E300040B1E078012805D0E078022802D0E0788F
:103E4000032800D105E04FF45071AFF28C40FCF72D
:103E500037FAA07810B1A078012800D105E040F22F
:103E60004131AFF2A440FCF72BFA207810B1207852
:103E7000012800D105E040F24231AFF2BC40FCF72E
:103E80001FFA607810B16078012800D105E040F297
:103E90004331AFF2D440FCF713FA45F00105E07866
:103EA00030B1012806D0022807D0032808D108E045
:103EB00000BF09E045F0400506E045F0800503E05D
:103EC00000BF45F0C00500BF00BF6078012801D1E8
:103ED00045F004052078012801D145F00205A078BD
:103EE000012801D145F00805C048864203D105F0FC
:103EF000CF00307202E005F0CF00307270BD0021BB
:103F00008170C17001210170417070472DE9F0414D
:103F100004460F461546B448844208D0B34884424C
:103F200005D0B348844202D0B248844200D105E0B3
:103F300040F29A31AFF27850FCF7C2F90DB1012D81
:103F400000D105E040F29B31AFF28C50FCF7B8F99C
:103F50000026012D09D13878012801D146F002064A
:103F60007878012801D146F00406A048844215D192
:103F7000012D10D1207B40F08000207300202070A4
:103F80002071207B20F0800020731020A06246F07A
:103F90000100206218E00020206215E0012D11D1FF
:103FA000207B40F080002073002020702071207B57
:103FB00020F080002073102084F8280046F00100D3
:103FC000206201E000202062BDE8F08170B5044667
:103FD0000D468548844208D08448844205D08448F0
:103FE000844202D08348844200D105E040F2DB31B4
:103FF000AFF23460FCF764F97C48844203D1206A54
:104000002843206202E0206A2843206270BD70B518
:1040100004460D467748844200D105E040F21C4139
:10402000AFF26460FCF74CF90DB1012D00D105E051
:1040300040F21D41AFF27860FCF742F9012D06D144
:1040400094F8240040F0020084F8240006E02DB922
:1040500094F8240000F03D0084F8240070BD70B591
:1040600004460D466348844200D105E040F23441E5
:10407000AFF2B460FCF724F90DB1012D00D105E0D9
:1040800040F23541AFF2C860FCF71AF9012D06D1B4
:1040900094F8240040F0010084F8240005E094F82E
:1040A000240000F03E0084F8240070BD2DE9F041AA
:1040B00005460C464F48854200D105E040F2554187
:1040C000AFF20470FCF7FCF86CB1012C0BD0022CA1
:1040D00009D0032C07D0042C05D0052C03D0062CC6
:1040E00001D0072C00D105E040F25641AFF230700C
:1040F000FCF7E6F86007870E95F8240020F03806F4
:1041000047F00400064306F03F0085F82400BDE8B0
:10411000F0812DE9F04104460D461646002733484C
:10412000844200D105E040F27541AFF26C70FCF7BB
:10413000C7F80DB1012D00D105E040F27641AFF294
:104140008070FCF7BDF80EB1012E00D105E040F201
:104150007741AFF29470FCF7B3F815B1012D04D19B
:1041600001E0012702E0022700E000BF00BF012EAE
:1041700003D1207C3843207404E0207CF321B94330
:1041800008402074BDE8F0812DE9F04104460D4659
:1041900017461648844200D105E040F29D41AFF237
:1041A000E070FCF78DF81DB1012D01D0022D00D17A
:1041B00005E040F29E41AFF2F870FCF781F80FB1D4
:1041C000012F00D105E040F29F41AFF60C00FCF753
:1041D00077F825B1012D04D0022D0FD10CE0102667
:1041E0000DE040260BE0000000C000400000014050
:1041F0000080094000C00940802600E000BF00BFE9
:10420000012F03D1207C3043207404E0207CF32173
:10421000B14308402074BDE8F08110B504468A48D7
:10422000844200D105E04FF49961AFF66C00FCF7D1
:1042300047F8207E10BD70B506460C46824886427F
:1042400000D105E040F2DC41AFF68C00FCF738F815
:10425000A07810B1A078012800D105E040F2DD413E
:10426000AFF6A400FCF72CF8E07810B1E078012854
:1042700000D105E040F2DE41AFF6BC00FCF720F8CB
:10428000E079FF2800DA05E040F2DF41AFF6D00028
:10429000FCF716F8607910B16079012800D105E0CB
:1042A0004FF49C61AFF6E800FCF70AF8207910B1F2
:1042B0002079012800D105E040F2E141AFF600107D
:1042C000FBF7FEFFA079FF2800DA05E040F2E241AB
:1042D000AFF61410FBF7F4FF207810B12078012816
:1042E00000D105E040F2E341AFF62C10FBF7E8FF08
:1042F000607810B16078012800D105E040F2E44117
:10430000AFF64410FBF7DCFF0025E07801280ED162
:1043100045F010056079012801D145F0200520798C
:10432000012801D145F00805E07986F8540020788D
:10433000012801D145F00105A078012804D145F0FC
:104340000405A07986F85000607808B945F00205A8
:1043500005F03F0086F84C00307B40F038003073A9
:1043600070BD012906D190F84C2022F0020280F89D
:104370004C2005E090F84C2042F0020280F84C20DE
:1043800070472DE9F0470446894692461F46A7B17B
:10439000257BA84628F0100884F80C80012352469B
:1043A00049462046FFF7B6FB064600BF207D00F0D9
:1043B00040000028FAD025730CE0012352464946FC
:1043C0002046FFF7A7FB064600BF207D00F0400017
:1043D0000028FAD03046BDE8F08713B50446012323
:1043E0001A4601A92046FFF7CCFF1CBD70B5044654
:1043F0000D4616460023324629462046FFF7C1FFE8
:1044000070BD1CB5012202210020FEF79FFD012294
:1044100003210020FEF79AFD6846FFF739FB4FF4B1
:10442000E130009003208DF8050000208DF8040095
:104430008DF8060069460548FFF7ACF901210348ED
:10444000FFF79DFA1CBD00000000014000C00040C5
:1044500010B50122CF490020FEF742FB0122510591
:104460001046FEF73DFB01224FF460510220FEF79B
:1044700037FB01224FF0C0610320FEF731FB10BD76
:1044800010B54FF400010020FEF748FB4FF080719B
:104490000020FEF743FB4FF400110120FEF73EFB26
:1044A0004FF400610220FEF739FB4FF480510220E7
:1044B000FEF734FB4FF400510220FEF72FFB4FF0C4
:1044C00000710320FEF72AFB4FF080610320FEF706
:1044D00025FB10BD10B520210020FEF715FB202183
:1044E0000020FEF71BFB10BDAB48406940F4806024
:1044F000A94948610846406920F4806048617047D6
:1045000010B54FF400010020FEF7FEFAFFF7E2FFBE
:104510004FF080710020FEF7F7FAFFF7DBFF4FF452
:1045200000110120FEF7F0FAFFF7D4FF4FF400610D
:104530000220FEF7E9FAFFF7CDFF4FF48051022089
:10454000FEF7E2FAFFF7C6FF4FF400510220FEF734
:10455000DBFAFFF7BFFF4FF000710320FEF7D4FA3C
:10456000FFF7B8FF4FF080610320FEF7CDFAFFF7A9
:10457000B1FF10BD10B50446FFF7C2FF0A2C15D2DB
:10458000DFE804F005152030455A6F848FA44FF002
:10459000C0710020FEF7C2FA4FF400110120FEF7AF
:1045A000BDFA4FF460510220FEF7B8FAA3E04FF0D5
:1045B00080710020FEF7B2FA4FF400110120FEF7DF
:1045C000ADFA98E04FF0C0710020FEF7A7FA4FF463
:1045D000C0510220FEF7A2FA4FF000710320FEF74F
:1045E0009DFA88E04FF0C0710020FEF797FA4FF473
:1045F00000110120FEF792FA4FF400610220FEF74D
:104600008DFA4FF000710320FEF788FA73E04FF047
:1046100080710020FEF782FA4FF400110120FEF7AE
:104620007DFA4FF400510220FEF778FA4FF0007146
:104630000320FEF773FA5EE04FF400010020FEF75E
:104640006DFA4FF400110120FEF768FA4FF4205183
:104650000220FEF763FA4FF000710320FEF75EFAC6
:1046600049E04FF400010020FEF758FA4FF4001122
:104670000120FEF753FA4FF460510220FEF74EFA84
:104680004FF000710320FEF749FA34E04FF0C0719B
:104690000020FEF743FA4FF400110120FEF73EFA26
:1046A00029E04FF0C0710020FEF738FA4FF40011F6
:1046B0000120FEF733FA4FF460510220FEF72EFA84
:1046C0004FF000710320FEF729FA14E04FF0C0719B
:1046D0000020FEF723FA4FF400110120FEF71EFA26
:1046E0004FF400510220FEF719FA4FF00071032039
:1046F000FEF714FA00BF00BFFFF7ECFE10BD10B5C7
:104700000446FFF7BDFE092C36D2DFE804F035057C
:104710000B11171D23292F004FF400010020FEF775
:10472000F3F929E04FF080710020FEF7EDF923E066
:104730004FF400110120FEF7E7F91DE04FF400618E
:104740000220FEF7E1F917E04FF480510220FEF756
:10475000DBF911E04FF400510220FEF7D5F90BE030
:104760004FF000710320FEF7CFF905E04FF08061B4
:104770000320FEF7C9F900BF00BFFFF7B5FE10BD6B
:1047800070B505460C462846FFF7B9FF2046FFF7EF
:10479000F1FE70BD300CB80100C00920002100E01E
:1047A000491C8142FCD3704710B504460A2C65D2DF
:1047B000DFE804F06405101B26303A444E5801220D
:1047C00011071046FEF78CF94FF080510120FEF7DB
:1047D000A5F953E0012251071046FEF781F94FF089
:1047E00000510120FEF79AF948E00122D107104656
:1047F000FEF776F94FF000410120FEF78FF93DE01A
:10480000012204210220FEF76BF904210220FEF7A9
:1048100085F933E0012208210220FEF761F9082121
:104820000220FEF77BF929E0012210210220FEF789
:1048300057F910210220FEF771F91FE00122202113
:104840000220FEF74DF920210220FEF767F915E05E
:10485000012240210220FEF743F940210220FEF709
:104860005DF90BE001224FF030411046FEF738F9B8
:1048700001227C210220FEF733F900BF00BF10BDEA
:1048800010B504460A2C3BD2DFE804F03A050B11C0
:10489000171C21262B304FF080510120FEF734F9F0
:1048A0002EE04FF000510120FEF72EF928E04FF0E6
:1048B00000410120FEF728F922E004210220FEF742
:1048C00023F91DE008210220FEF71EF918E010214F
:1048D0000220FEF719F913E020210220FEF714F957
:1048E0000EE040210220FEF70FF909E04FF03041C1
:1048F0000120FEF709F97C210220FEF705F900BF2F
:1049000000BF10BD10B50446092C31D2DFE804F019
:1049100030050B11171C21262B004FF08051012070
:10492000FEF7FCF824E04FF000510120FEF7F6F806
:104930001EE04FF000410120FEF7F0F818E00421DE
:104940000220FEF7EBF813E008210220FEF7E6F85C
:104950000EE010210220FEF7E1F809E020210220FC
:10496000FEF7DCF804E040210220FEF7D7F800BF94
:1049700000BF10BD10B50446092C16D2DFE804F0C4
:104980008D05162738495A6B7C006A48007830B983
:104990000120FFF775FF01206649087005E001203E
:1049A000FFF7B0FF00206349087076E062480078A6
:1049B00030B90220FFF764FF01205F49087005E06D
:1049C0000220FFF79FFF00205B49087065E05B480D
:1049D000007830B90320FFF753FF012057490870D2
:1049E00005E00320FFF78EFF00205449087054E0D3
:1049F0005348007830B90420FFF742FF01205049A6
:104A0000087005E00420FFF77DFF00204C49087086
:104A100043E04C48007830B90520FFF731FF012012
:104A20004849087005E00520FFF76CFF0020454964
:104A3000087032E04448007830B90620FFF720FFC4
:104A400001204149087005E00620FFF75BFF0020C8
:104A50003D49087021E03D48007830B90720FFF754
:104A60000FFF01203949087005E00720FFF74AFFD2
:104A700000203649087010E03548007830B9082029
:104A8000FFF7FEFE01203249087005E00820FFF71D
:104A900039FF00202E49087000BF00BF10BD10B5BF
:104AA0004FF080510120FEF72FF84FF00051012008
:104AB000FEF72AF84FF000410120FEF725F8042107
:104AC0000220FEF721F808210220FEF71DF8102130
:104AD0000220FEF719F820210220FEF715F84021E8
:104AE0000220FEF711F810BD10B54FF080510120E3
:104AF000FEF714F84FF000510120FEF70FF84FF0C9
:104B000000410120FEF70AF804210220FEF706F812
:104B100008210220FEF702F810210220FDF7FEFF17
:104B200020210220FDF7FAFF40210220FDF7F6FFC9
:104B300010BD0000EC150010ED150010EE15001072
:104B4000EF150010F0150010F1150010F21500100F
:104B5000F315001053EA020C00F069802DE9F04BC8
:104B60004FF00006002B1FBFB3FA83F503FA05F4DC
:104B700024FA05F65E4012BF1643B2FA82F502FA35
:104B800005F4C5F120051EBF22FA05FC44EA0C0419
:104B9000203556EA044C4FEA144418BF641C4FF009
:104BA00000084FF00009904271EB030C39D3002943
:104BB00019BFB1FA81F701FA07F6B0FA80F700FAE7
:104BC00007F6C7F120071EBF20FA07FC46EA0C06CD
:104BD0002037B6FBF4FCA7EB0507103F07F01F0BCF
:104BE000CBF120060CFA0BFB2CFA06F644BFB346B9
:104BF0000026202FA4BF5E464FF0000B5BEA060C98
:104C000008BF4FF0010B19EB0B09ABFB027C48EB23
:104C10000608C01B06FB02CC0BFB03CC71EB0C019E
:104C2000C1E70B46024641464846BDE8F08B13B546
:104C30004FF000004FF00001AFF30080BDE81C40D2
:104C4000704700000FB41CB5074B06AA7B446946A9
:104C50000090059800F033FA0020694600F042FA0F
:104C60001CBC5DF814FB00009504000070B5044600
:104C700085690068C10601D5302600E02026C007FE
:104C800007D070BDD4E9012130469047206A401C0E
:104C900020626D1EF6D570BD70B50446856900783A
:104CA000C00707D170BDD4E9012120209047206AB8
:104CB000401C20626D1EF6D570BD70B50C460546D1
:104CC000012A05D02878800600D5EA69002302E091
:104CD000012305E05B1C934202D2E05C0028F9D17D
:104CE000A869E618C01AA861286A184428622846EC
:104CF000FFF7BCFF04E0D5E9012114F8010B904750
:104D0000B442F8D32846FFF7C7FF70BD2DE9F04144
:104D10000646002410687529314616A510D0AFF359
:104D20000080002802DA404213A507E031688A07B4
:104D300001D512A502E0490704D511A5012401E01F
:104D4000AFF3008000210A2206F1240709E0B0FB3E
:104D5000F2FCB0FBF2F302FB1C0030307854184632
:104D6000491C0028F3D123462A463046BDE8F041CD
:104D700000F047B9000000002D0000002B000000EB
:104D8000200000002DE9F0474FF0000A8946044654
:104D9000C0F820A02046E1688847002876D0252862
:104DA00006D0D4E901219047206A401C2062F1E737
:104DB000E168204600258847C4F81CA00646002765
:104DC000C4F818A02A2E09D0304600F01FFA38B3D4
:104DD00004EB8708303EC8F8186019E059F8041B46
:104DE000204604EB87029161E1688847012F06465F
:104DF00018D1E069002820DA25F020051DE0D8F858
:104E0000180000EB800006EB40003038C8F81800AE
:104E10002046E1688847064600F0F8F90028EED100
:104E2000012F0AD02E2E08D12046E16888477F1C2A
:104E30000646022F45F02005C4DBA069002803DAEE
:104E4000404245F00105A061E80701D025F01005BA
:104E5000B6B1A6F14100192802D8203645F4006504
:104E60004A463146204625604D46FBF78DF958B13C
:104E7000012806D0ED1D25F0070000F1080989E79B
:104E800004E005F1040985E730468AE7206ABDE8B9
:104E9000F0870000014A00F041B90000F41500104D
:104EA00040EA0103024630B59B0710D14FF00134B0
:104EB00000E008C208C91D1B9D4315EAC41FF8D0B5
:104EC00013F0FF0102F8011B0DD01B0AF8E711F8DF
:104ED000013B002B02F8013B05D011F8013B002BF0
:104EE00002F8013BF3D130BD4FF000020429C0F0BD
:104EF000128010F0030C00F01B80CCF1040CBCF10C
:104F0000020F18BF00F8012BA8BF20F8022BA1EB5D
:104F10000C0100F00DB85FEAC17C24BF00F8012B42
:104F200000F8012B48BF00F8012B70474FF000023A
:104F300000B5134694469646203922BFA0E80C508F
:104F4000A0E80C50B1F12001BFF4F7AF090728BF6A
:104F5000A0E80C5048BF0CC05DF804EB890028BFE6
:104F600040F8042B08BF704748BF20F8022B11F00F
:104F7000804F18BF00F8012B704700004FF0013C34
:104F800050F8042B51F8043B9A4221D1A2EB0C03B8
:104F9000934313EACC1317D150F8042B51F8043B78
:104FA0009A4215D1A2EB0C03934313EACC130BD115
:104FB00050F8042B51F8043B9A4209D1A2EB0C03A0
:104FC000934313EACC13DBD04FF00000704700BFCF
:104FD000D01A01BAB1FA81F101F0180122FA01F0F8
:104FE000CB40C1F12001DBB2C0B2C01A2CFA01F3F0
:104FF000D11A914311EAC311E6D170477047704747
:1050000070472DE9F0470D4699469246044600F157
:1050100024080168880604D5E06921F010012160A8
:1050200000E00120A84201DD471B00E00027A16944
:105030007A1902EB0900081AA0612078C00602D490
:105040002046FFF713FE002608E0D4E901211AF8F4
:1050500006009047206A401C761C20624E45F4DB17
:105060002078C0060AD52046FFF700FE06E0D4E906
:10507000012130209047206A401C2062381EA7F191
:105080000107F4DC07E0D4E9012118F80500904796
:10509000206A401C2062281EA5F10105F3DC204691
:1050A000FFF7FAFD2078000602D50220BDE8F08760
:1050B0000120FBE701694A1C02610878704700B5CE
:1050C0008FB0CDE901310021059105497944CDE941
:1050D000031011466846FFF755FE0FB000BD0000F3
:1050E000E5FFFFFF0A6802F8010B0A60704710B580
:1050F000436913B1AFF3008001E0FFF7DEFD01204B
:1051000010BD127800F124010A7000224A700122B9
:10511000EDE711684FF0FF32E9E700002DE9F041BB
:1051200015460E46040002D12C6804B90BA4204693
:1051300000F026F80444207870B1274631463846FE
:1051400000F00EF80444207810B1002004F8010BA0
:1051500038462C60BDE8F0810027F9E70000000028
:1051600030B503461D781DB10A4603E0AC4201D1BB
:10517000181A30BD12F8014B002CF7D15B1CF1E777
:1051800030B503461D783DB10A4612F8014B1CB1FB
:10519000AC42FAD15B1CF5E7181A30BD754600F039
:1051A0002BF8AE4605006946534620F007008546B9
:1051B00018B020B5FBF712F8BDE820404FF000060C
:1051C0004FF000074FF000084FF0000B21F00701EF
:1051D000AC46ACE8C009ACE8C009ACE8C009ACE832
:1051E000C0098D46704710B50446AFF300802046D5
:1051F000BDE81040FAF7DDBF00487047681800109E
:1052000001491820ABBEFEE72600020030380A280C
:1052100001D2012070470020704700003C5200007E
:1052200000000010F815000008010000FC59000003
:10523000F8150010D00400006C01000000063700D3
:10524000A24A0400010316800102611EE13292CCE1
:1052500002012A6A23600C02200F30063006FE1F6E
:10526000FE1F3006380718030A2007180318038C9E
:1052700001023172201700E003F80F9C0E8C1C8C89
:10528000188C009800F801E007800E800E100B18B3
:105290009C18B80CF00FE0038026A15A10090E18D4
:1052A0001B0C110C11060210110311039B018E013E
:1052B000C038C06C60446044300260071844186C09
:1052C0000C38BE1005E001F0037A10140618063001
:1052D00003F001F000F8009C310E33061E061C029C
:1052E000E0063FFC73F021B8920C020121E7100B9D
:1052F0000200038001C000C0006002D2300221140D
:10530000211C155E12032A15163220123570120365
:1053100002D20602111425A2214ED620882148105F
:1053200008D806F807E00130D2052AEAC405FC3F98
:10533000FC3FE8092C30120002021B806C08053487
:10534000E007E00790253AF57F750C155C351045B0
:10535000624564D17AE00A03F007380E180C0C1885
:1053600002D409180C380EF007E003B0214C0C07EA
:105370001901F0019801880803A16043F80F5E222B
:105380000002219C35F025ECD0071800FC1FFC1F03
:1053900090100701F807180E0C0121C81805C0036A
:1053A000C00751113C41920210F8904C0B0C000EBA
:1053B000000F000F800DC03003116B270C0CB209D9
:1053C000148513F80F9031893009EC03FC071C0E8B
:1053D000001C98115E0005101C0C180E602009C0FE
:1053E00007F00F381C1818325409CC03EC0F3C0E90
:1053F0001C1C2006121C2031D24582357C16C07A36
:105400003AE0C85A70DE051480215384073806F04C
:1054100007F0078CE005380CF80F604130521C246F
:1054200030091C1C381EF81BE019D1130C1CC00BD2
:105430001BF0018A012114011F30091ACE1C05102E
:10544000001C80720416F8DC1AF85C17800F600AE2
:105450001810F8C3F81F080D1E14051807080038A7
:1054600000F00114121F61161F9C13013814091754
:1054700070796E6D2603FD2E033D7C03400C1818D9
:105480000420C229224A11440902EC0C221113E221
:105490000C024004201818980315D4200403C006F9
:1054A00002396E2218022C07F83FF83F1C70AF0536
:1054B0002119D9106C0503FC0F0C5E0310040CFCC1
:1054C000070E1A18A541021E180003FA0770BC0A3D
:1054D0001F38381C300C700660DD04E008600C706A
:1054E0001C30F01F903C08FE03FE0F060E06A105BF
:1054F000B1022DB305E8050EFE0FFEA01DCC048DF4
:10550000A20529AEADB0053D3803C5A211DC4DBBE7
:10551000032D27038005F81FF81F0E4DD303DDCAA6
:10552000043C0C0FF83F3C780E6006E007C0810495
:1055300011A11DC5031533DC090EC03CF0F83FE096
:105540000FBF03A23002319EB1120F260C3080072C
:105550000D15A005021406022531DC063807F003FC
:10556000E0B004353A10140C060606038601C600A6
:1055700066007600DE008E01060312360C64DD4103
:1055800005021B18022530CD210320050EE01EF078
:10559000024336D8022366CC0252C601E40586C314
:1055A00086C32010041C303C02126C0212CC021084
:1055B000058C310C3302123602123C02E638201CF4
:1055C00005E007F81F9904193EA303C002F8080676
:1055D000600E701C38F8401BFC0F02CA38920E197E
:1055E0000CC407916082E05E140907E006630E3F79
:1055F0001C3CE0CEF79106198258041F06389C1E09
:1056000038C00876074C49B20E106030065DDE04E3
:105610001D9B051BF80330331E00401C050E301C7B
:105620001C1005ED000308042A7FFE7F10E95EA927
:105630007E0710181820430360BC6D14072D160751
:105640002D9409140570076003631DE005E1302304
:10565000C3610283663302236C1B02CC092C1A3C03
:105660001E380E380E31051C090FE00C7018303052
:10567000183F043C040EC0075E04140503E00670E6
:10568000F71D8107D006300E6007E0602D79044CCD
:1056900008301C383818300C65030D1C80075C0579
:1056A000FC7FFC7F6D07DD7C072D2708253EED1074
:1056B000082FE003AE06011E0221282DA60A6DA6C2
:1056C000094DA8091D64096D0E0B7E03A009F16048
:1056D0000221000261601D82071D4407256C3F60A6
:1056E00003D704291901390112FF010D39AE0A9DB2
:1056F0004A081805F003F807AA2C070C000FF00F52
:10570000F8B1081F0C1C5C080F16F01820041ED8F6
:10571000A80B1E38370881012DE0070F17D803DAD0
:10572000091D9A096F300E39092DA3081E30900902
:10573000EEC00009711F2805C01BF01F36816000F4
:105740000719301CF01FC01B601E0F83066E18D493
:10575000051952EC051CF00FC0F00644040FC00FF1
:10576000DA2D9C0855E4B1020D17D40A1E0DFA0972
:105770003DCA0961011D600924050FE00D002A6E74
:1057800006AA0895204F07F86A09D1010D16F00AFC
:105790000215C002012E3041DEEC04F80078BE0C88
:1057A0001C050C0C060C6A0D100DCC006C00FC00E6
:1057B0009C018C030C03120E100C560C011C020DE4
:1057C000169009E0097C3CFF7EC7E383C1020D16F9
:1057D000EA0B062398200510E099101D0E0E0A17FB
:1057E000C0700916A00D16EA070917700D151B08E1
:1057F0001EB06E07FE70E20D0E1830140D1E037AF7
:105800000E1D1A0B1DF2093D060C0D15900C1D0204
:105810000F0919A00F170780EA0D09106A1238C086
:105820001D4C0B0D15DB0A4DFE053E18920F1DB7E2
:10583000060E140300068DF80F3008C141C141C3A4
:10584000616301323601321C010D16F00F3E1CF768
:105850000952605A1D5E061D75061E38E10B0117C0
:10586000C01D36061D38062E1828102FE00C940A8D
:105870002D3E064DF00D1DA20D1D700C0D159A0C40
:105880000D1B800D8D300B8D320E2DE205BA40D6EA
:105890003D900F0D259009CD22119E6024069DC6D6
:1058A0000FB3030048FEC0A80E5D74050007511039
:1058B000F81F080F0001600DC003300C0810042011
:1058C0000420024002210E0C05120810300C340393
:1058D0002D3E052FF81F1A102D82084102210E0FB0
:1058E00018F81F64031EE04C0EA9700F1CF00FF691
:1058F0000F21302D9E056102011E30ADBC103AC053
:105900004021660D10840A011430A16E0D10A80DFF
:105910001D24063D42041DE30C0E20030411A1B218
:105920000122307D6C121D581010048C0186021269
:105930008C0A00051EF001E001301006F801FC01A0
:10594000FE0212FC0A011E30100B8007800F801926
:10595000803180610212310A00041F0F800730106D
:10596000061F803F807F02123F0A0111301805C0D8
:1059700001200233B00501300608012116E1024D75
:10598000CE082D62091D4211A00407D80D027DF634
:10599000039102011260230410593240164310048F
:1059A0001211026C042004402E09C1604C07CC196E
:1059B000C631C26142091F700680084D3A101D6948
:1059C000046D10090D17CB0F0F175800BB0F0D12E8
:1059D000F5041ECF9A0B2D6D112DD30F1E17EA0360
:1059E0001E3B1E0A52282C2114521C08D21E0801EC
:0C59F0001214AD28070E4564EF03000000
:04000005000000CD2A
:00000001FF
